:020000040800F2
:10000000F8FF0120E1B3090861B40908C530080808
:1000100061B4090861B4090861B40908000000006E
:1000200000000000000000000000000061B40908AA
:1000300061B409080000000061B40908293108080A
:1000400061B4090861B4090861B4090861B4090818
:1000500061B4090861B40908615D0808A15E080877
:10006000615E0808215E0808E15D0808255C090852
:10007000155C0908055C0908F55B0908E15B0908DE
:10008000CD5B0908B95B090861B4090861B40908C6
:1000900061B4090861B4090861B40908A15D0808E0
:1000A00061B40908056B090861B40908F56A090813
:1000B000E56A0908D56A0908C56A0908595A09088C
:1000C0007D5A09089D590908C1590908595C090850
:1000D0004D5C0908993E08088D3E0808813E0808D5
:1000E000215D080861B40908000000006D6A090874
:1000F0007D6A09085D6A0908A56A0908A55B0908FF
:1001000061B40908ED300908B56A0908415C0908BD
:10011000753E080861B4090861B40908C57F040880
:10012000915B09087D5B0908695B0908555B090853
:10013000415B090861B4090861B4090861B40908A0
:1001400000000000000000000000000000000000AF
:100150002D5B0908195B0908055B0908693E080859
:1001600061B4090861B4090861B4090861B40908F7
:1001700061B4090861B4090861B40908000000000D
:1001800061B4090861B409085D3E0808513E0808D9
:10019000355C090861B4090861B4090861B409084B
:1001A00061B4090861B4090861B4090861B40908B7
:1001B00061B4090861B4090861B4090861B40908A7
:1001C00061B4090861B4090861B4090861B4090897
:1001D00061B409084D82040861B4090861B40908D2
:1001E00061B4090861B4090861B4090861B4090877
:1001F00061B4090861B4090861B4090861B4090867
:1002000061B4090861B4090861B4090861B4090856
:100210004D6A09083D6A09082D6A090861B4090890
:1002200061B4090861B4090861B40908000000005C
:100230002133090861B409080000000061B409080D
:1002400061B4090861B4090861B4090861B4090816
:1002500061B4090861B4090861B4090861B4090806
:1002600061B4090861B4090861B4090861B40908F6
:1002700061B4090861B4090861B40908000000000C
:1002800061B409080000000061B409080000000022
:080290000000000061B4090840
:0802980064AE09000100000042
:1002A00000C20100000008000A0600020000004031
:1002B0000100000009026400030100C032090400CB
:1002C000000103000000092111010001223600078E
:1002D00005830308000A080B010202020100090459
:1002E00001000102020100052400100105240100A3
:1002F0000204240202052406010207058203080005
:10030000FF09040200020A00000007050102400084
:100310000007058102400000E1D3040841A304085E
:100320005DD1040800000000ED9704086DCF0408BB
:100330001998040800000000000000000000000000
:10034000CD970408DD970408BD970408AD9704080D
:100350001A03000000000000000000000000000080
:100360000000000000000000000000000403090479
:1003700012010002EF020140830456320002010222
:1003800003010000120100020200004083044057F4
:1003900000020102030108000090D00300000240A7
:1003A00010000240000000000000000000000B00F0
:1003B00000000000000000000000000000000240FB
:1003C00028000240010000000000000006000C00B0
:1003D00000000000000000000000000000000240DB
:1003E00040000240020000000000000010000D006C
:1003F00000000000000000000000000000000240BB
:1004000058000240030000000000000016000E002B
:10041000000000000000000000000000000002409A
:1004200070000240040000000000000020000F00E7
:10043000000000000000000000000000000002407A
:1004400088000240050000000000000026001000A7
:10045000000000000000000000000000000002405A
:10046000A000024006000000000000003000110063
:10047000000000000000000000000000000002403A
:10048000B8000240070000000000000036002F0006
:100490000000000000000000000000000004024016
:1004A00010040240000000000000000000003800BE
:1004B00000000000000000000000000000040240F6
:1004C000280402400100000000000000060039007E
:1004D00000000000000000000000000000040240D6
:1004E00040040240020000000000000010003A003A
:1004F00000000000000000000000000000040240B6
:1005000058040240030000000000000016003B00F9
:100510000000000000000000000000000004024095
:1005200070040240040000000000000020003C00B5
:100530000000000000000000000000000004024075
:10054000880402400500000000000000260044006E
:100550000000000000000000000000000004024055
:10056000A00402400600000000000000300045002A
:100570000000000000000000000000000004024035
:10058000B8040240070000000000000036004600EA
:100590000000000000000000000000007D000000DE
:1005A000010000000000803F0A0600020000004039
:1005B0000100000009022200010100E032090400EC
:1005C0000001030102000921110100012236000788
:1005D00005830308000A000009022200010100E06F
:1005E0003209040000010301020009211101000188
:1005F00022360007058303080007000009022200D5
:10060000010100E032090400000103010200092198
:10061000110100012236000705830308000A0000CB
:100620000A06000200000040010000000907430024
:10063000020104C032090400000102020100052485
:100640000010010524010001042402020524060013
:10065000010705820308001009040100020A0000D6
:10066000000705010240000007058102400000006C
:1006700009024300020100C0320904000001020225
:1006800001000524001001052401000104240202D8
:100690000524060001070582030800100904010073
:1006A000020A00000007050102000200070581029E
:1006B0000002000009024300020100C032090400E8
:1006C00000010202010005240010010524010001BF
:1006D0000424020205240600010705820308001015
:1006E00009040100020A00000007050102400000A1
:1006F000070581024000000005010905A101A100D4
:10070000050109300931093209330935093409363F
:1007100009371581257F750895088102050919019A
:10072000290815002501950875018102C0C0000047
:100730000921110100012236000000001000000014
:1007400000FF0000000000000000AA5507010000A3
:100750000101AA55050100007EFF0000FFFFFFFF19
:1007600008000000C8D00908FF1FFF1F2D202D2DF5
:10077000202D2D2D2D202D2D2D2D000000000000D1
:100780000000000000000000000000AA550B01005E
:1007900000AA5505010000AA550902000000AA554B
:1007A00003009F0001000000C0120000408A0024E6
:1007B00000000000188A002400000000B4450A0868
:1007C00030450A0800000000E15A0708A086010031
:1007D0000400000000000000000000000000000015
:1007E0000000000000000000000000000000000009
:1007F000000000000000000000000000B4450A08EE
:10080000BC450A0800000000C1C70708E803000053
:1008100004000000000000000000000000000000D4
:1008200000000000000000000000000000000000C8
:10083000000000000000000000000000C4450A089D
:100840000000000000000000112F00007D000000EB
:10085000FF00000000000000000000000000000099
:100860000000000000000000000000000000000088
:1008700000000000000000000000000088BF0A081F
:100880000000000000000000452500007D00000081
:10089000FF00000000000000000000000000000059
:1008A0000000000000000000000000000000000048
:1008B000000000000000000000000000C4500A0812
:1008C0000000000000000000F10500007D000000B5
:1008D000FF00000000000000000000000000000019
:1008E0000000000000000000000000000000000008
:1008F000000000000000000000000000CC450A08D5
:100900000000000000000000E1380808E8030000D3
:1009100003000000000000000000000000000000D4
:1009200000000000000000000000000000000000C7
:10093000000000000000000000000000D0450A0890
:10094000000000000000000051EB06081027000026
:100950000300000000000000000000000000000094
:100960000000000000000000000000000000000087
:1009700000000000000000000000000090BB0A081A
:100980000000000011340608612308085F760000AB
:100990000500000000000000000000000000000052
:1009A0000000000000000000000000000000000047
:1009B0000000000000000000000000002CBF0A083A
:1009C00000000000000000002D4208081027000071
:1009D0000100000000000000000000000000000016
:1009E0000000000000000000000000000000000007
:1009F000000000000000000000000000DC450A08C4
:100A00000000000000000000CDC00708E80300005F
:100A100005000000000000000000000000000000D1
:100A200000000000000000000000000000000000C6
:100A3000000000000000000000000000E8450A0877
:100A40000000000000000000715F0708204E000059
:100A50000300000000000000000000000000000093
:100A60000000000000000000000000000000000086
:100A7000000000000000000000000000F8450A0827
:100A80000000000000000000315D0708204E00005B
:100A90000300000000000000000000000000000053
:100AA0000000000000000000000000000000000046
:100AB00000000000000000000000000008460A08D6
:100AC000000000000000000049350808400D030048
:100AD0000300000000000000000000000000000013
:100AE0000000000000000000000000000000000006
:100AF00000000000000000000000000018460A0886
:100B000000000000000000009D32080810270000CF
:100B100001000000000000000000000000000000D4
:100B200000000000000000000000000000000000C5
:100B30000000000000000000000000005C450A0802
:100B4000000000000000000009B3050810270000A5
:100B50000300000000000000000000000000000092
:100B60000000000000000000000000000000000085
:100B700000000000000000000000000020460A08FD
:100B8000000000000000000075630608A086010058
:100B90000100000000000000000000000000000054
:100BA0000000000000000000000000000000000045
:100BB00000000000000000000000000028460A08B5
:100BC000000000000000000041C6070850C30000FC
:100BD0000100000000000000000000000000000014
:100BE0000000000000000000000000000000000005
:100BF00000000000000000000000000030460A086D
:100C0000000000000000000031C20708A8610000D9
:100C100001000000000000000000000000000000D3
:100C200000000000000000000000000000000000C4
:100C30000000000000000000000000003C460A0820
:100C40000000000000000000BD030608A0860100AF
:100C50000100000000000000000000000000000093
:100C60000000000000000000000000000000000084
:100C700000000000000000000000000048460A08D4
:100C80000000000000000000A9F30708A00F00000A
:100C90000100000000000000000000000000000053
:100CA0000000000000000000000000000000000044
:100CB00000000000000000000000000054460A0888
:100CC0000000000000000000EDA105081027000052
:100CD0000100000000000000000000000000000013
:100CE0000000000000000000000000000000000004
:100CF00000000000000000000000000060460A083C
:100D00000000000000000000818405081A41000076
:100D100001000000000000000000000000000000D2
:100D200000000000000000000000000000000000C3
:100D300000000000000000000000000064460A08F7
:100D40000000000000000000510A05081027000004
:100D50000100000000000000000000000000000092
:100D60000000000000000000000000000000000083
:100D700000000000000000000000000044450A08D8
:100D80000000000000000000A10D060850C3000094
:100D90000100000000000000000000000000000052
:100DA0000000000000000000000000000000000043
:100DB00000000000000000000000000070460A086B
:100DC0000000000000000000FD190508400D0300B0
:100DD0000000000000000000000000000000000013
:100DE0000000000000000000000000000000000003
:100DF00000000000000000000000000078460A0823
:100E0000000000000000000089C00708400D03003A
:100E100000000000000000000000000000000000D2
:100E200000000000000000000000000000000000C2
:100E300000000000000000000000000080460A08DA
:100E40000000000000000000B1EE050850C30000E3
:100E5000030000000000000000000000000000008F
:100E60000000000000000000000000000000000082
:100E70000000000000000000000000008C460A088E
:100E80000000000000000000E575070840420F0068
:100E90000000000000000000000000000000000052
:100EA0000000000000000000000000000000000042
:100EB00000000000000000000000000098460A0842
:100EC000000000000000000009C2070850C3000035
:100ED0000000000000000000000000000000000012
:100EE0000000000000000000000000000000000002
:100EF00000000000000000000000000001000000F1
:100F000000000100E0010100F1960508000000006A
:100F100000000000D4D20908FF0800000000000013
:100F200000000000000000008CEC09080000000038
:100F3000000000000000000044ED0908000000006F
:100F40000000000000000000F0EC090800000000B4
:100F50000000000061CE0508E9960024E5E00508E0
:100F600000000000000000001CEC0908010101FF66
:100F7000FFFFFFFFA1FC05080000000000000000CB
:100F800018EE0908C9FF0508000000000000000075
:100F9000D0ED09082D202D2D202D2D2D2D202D2D8E
:100FA0002D00000000000000000000000000000014
:100FB00000000000FFFFFFFF01000000FA0000003A
:100FC0000100000001000000F89200240000F4017C
:100FD00001000000F69200240000F401010000006E
:100FE000F49200240000F40101000000F2920024B9
:100FF0000000F40101000000F09200240000F40160
:1010000001000000EE9200240000F4010100000045
:10101000EC9200240000F40101000000F99E050894
:10102000BD9E050800000000E0D80908DC920024FD
:1010300005320100EA9200246400F401010000007E
:10104000E89200246400C40901000000DA92002440
:10105000E803D00701000000D8920024E803D0077D
:1010600001000000D6920024E803D0070100000030
:10107000D49200241E00B80B01000000E29200246C
:1010800005000F0001000000E492002403000A00A4
:1010900001000000D29200241E00F40101000000B3
:1010A000E6920024020000006CD90908D0920024C6
:1010B0001400640001000000DE9200243200E80306
:1010C00001000000CE9200240000C80001000000D2
:1010D000D991002400C80100D891002400500100DB
:1010E000D7910024005A0100D5910024020000008D
:1010F00078D9090814480A081C480A086A5A0024C2
:101100000100C40900000000685A00240100C4095D
:1011100000000000665A00240100C409000000001D
:10112000645A00240100C40900000000605A002431
:101130000100C40900000000625A00240100C40933
:10114000000000005E5A00240100C40900000000F5
:101150005C5A00240100C40900000000838F0024B1
:1011600000C80100828F002400C80100808F002485
:101170000000FFFF0A0000007E8F00240100C8006D
:10118000010000007C8F0024320030753200000026
:101190007A8F00247EFF140005000000788F002461
:1011A00005002C0105000000778F0024055A05007A
:1011B000748F002400FF0100768F002402000000DD
:1011C000540E0024728F00240300000098CD0908FB
:1011D000738F002400FF0100758F002402000000BF
:1011E000540E0024718F00240300000098CD0908DC
:1011F0004D9E0508DD9D05080000000084D9090802
:1012000010930024EE02CA08010000000E9300248F
:1012100000C80100640000000D93002400C8010014
:10122000640000000C9300240200000090DA09081A
:101230005E8F00240000803E050000005C8F0024CB
:1012400080C1803E05000000568F00240083007D91
:1012500005000000548F002480C1803E050000007E
:101260004F8F002400FF0100488F00246400F40128
:1012700001000000468F0024040000009CDA0908E9
:10128000458F002402000000B0DA0908099000240C
:101290000D000000BCDA090806900024006401007B
:1012A00004900024320010270A000000029000245D
:1012B0000D000000BCDA0908019000240D000000B8
:1012C000BCDA09080090002402000000F4DA0908E2
:1012D000169300243E00000000DB0908149300244C
:1012E0000100FF7F010000001393002402000000B2
:1012F000FCDB09080B900024030000000CDC09084B
:101300000A900024030000000CDC0908C6910024A8
:10131000000A0100C49100240000E803010000005D
:10132000C29100240000E80301000000C0910024E5
:101330000000E80301000000BE9100240000E80363
:1013400001000000B69100240000E8030100000045
:10135000BC9100240000E80301000000BA910024C1
:101360000000E80301000000B8910024001401000F
:10137000D4910024020000001CDC0908D291002452
:101380000000F40101000000D09100240000F401ED
:1013900001000000CE9100240000F40101000000D3
:1013A000CC9100240000F40101000000CA91002447
:1013B0000000A00F01000000C89100240000A00F51
:1013C00001000000BB92002419640100BA920024BD
:1013D0000200000028DC0908B8920024E803D007C6
:1013E0000A000000B6920024006401000A00000018
:1013F000AB92002400640100AA9200240064010062
:10140000B2920024006401000A000000B19200249E
:10141000006401000A000000B09200240064010092
:101420000A000000B592002400FF01000A0000003D
:10143000B492002400FF01000A000000B3920024CF
:1014400000FF01000A000000AF92002401FF01002C
:101450000A000000AE92002401FF01000A00000013
:10146000AD92002401FF01000A0000001490002446
:101470000000F40101000000129000240000A00F01
:1014800001000000109000240000A00F01000000E7
:101490000E9000240000A00F010000000C9000241A
:1014A0000000A00F010000003997002400C80100CF
:1014B000389700240064010037970024006401007D
:1014C0003697002400640100359700240064010071
:1014D00034970024FF0801003397002401640100C1
:1014E000459D0508099D05080000000034DC090839
:1014F0003C970024013201003B97002401000000CA
:10150000A4DC09083A97002404000000ACDC0908B8
:101510003297002400640100309700241400E8038F
:10152000010000002E970024E80330750A00000037
:101530002C97002400C801002B97002400C801004C
:101540002A97002400C801002997002400320100D6
:101550003E970024004B01003D970024040000004A
:10156000C0DC090828970024006401000A0000007C
:101570004C9700240000D00701000000479700248A
:1015800000C801004697002400C8010045970024C8
:1015900000C801004A9700240000D00701000000A5
:1015A0004497002400C801004397002400C80100AC
:1015B0004297002400C80100489700240000D0078B
:1015C000010000004197002400C80100409700245A
:1015D00000C801003F97002400C80100F19A0508E7
:1015E000D99A050800000000D4DC0908FD8F00240A
:1015F000005A0100FC8F002400C80100FA8F00246B
:10160000E803D00701000000000000000000000017
:10161000A1CE050870DD09084D4154454B483734CB
:1016200033000000708F0024000301006F8F00243E
:1016300000030100159A0508C9990508000000007B
:10164000C4DD0908899905084199050800000000D2
:1016500060DE0908619A0508C9E00508000000007D
:10166000E0DE0908608F002401030100D59F050812
:10167000A99F05080000000038E20908C598050880
:101680007998050800000000A8E20908019B0508F8
:1016900021E205080000000044E309084DE40508C4
:1016A00001A0050800000000ECE309085D9B0508A7
:1016B00000000000000000006CE40908399C0508E7
:1016C000E19B050800000000D0E40908CD9C050856
:1016D000919C05080000000078E5090851240608DF
:1016E000819D05080000000004E60908CD92002451
:1016F00001060100A59B0508719B0508000000007C
:1017000000E7090883230608F1E20508000000004D
:1017100070E709089D240608B9E3050800000000E9
:10172000C0E80908CC92002401030100A99A050829
:10173000799A05080000000094E90908F9240608D0
:101740000000000000000000F8E9090811990508F0
:10175000B1E005080000000078EA09080000000078
:10176000000000000000000004EB0908B59D05081A
:1017700031E405080000000074EB090800000000D7
:1017800000000000000000008CED090858840024CF
:101790009CFF2C0100000000B4990024E0150C17F8
:1017A000000000007D96002402000000C4ED09083E
:1017B000408F002488136F1701000000428F00241F
:1017C00088136F1700000000AE5A002400000000CC
:1017D00000000000AC5A00240000000000000000DF
:1017E000AA5A00240000000000000000A85A0024AB
:1017F0000000000000000000A65A002400000000C5
:1018000000000000A45A00240000000000000000B6
:10181000080500240000000000000000C88E00241D
:1018200003000000B4EE0908388F002488136F17F6
:1018300001000000A284002488136F17000000003C
:10184000B99705080000000000000000C4EE090878
:101850007E9600240100000018EF0908A4840024EB
:101860000100000024EF09089A840024020000000F
:101870002CEF09080000000000000000000000003C
:1018800038EF0908A19705080000000000000000DB
:10189000D4EF090800000000000000000000000074
:1018A00028F009080000000000000000000000000F
:1018B00098F00908448F002402000000D0F00908C5
:1018C0009E840024E0150C1700000000E0A2002414
:1018D00034A3002401D601FF010000000001010132
:1018E00000000000FFFFFFFF0000803F000000003D
:1018F00000000000000000000000000000000000E8
:1019000000000000000000000000000000000000D7
:101910000000803F00000000000000000000000008
:101920000000803F000000000000000000000000F8
:101930000000803F000000000000000000000000E8
:10194000010000000000FA430000FA430000803F5D
:10195000FFFFFFFFFF000000AD340808000000009B
:1019600000000000000000000000000058BC00243F
:10197000080000000000000048BC0024080000002F
:10198000685E0C0002010000A00F0000B80B000010
:101990000102FFFF010000002D08040811080408DF
:1019A000CD07040800000000C1070408AD070408C3
:1019B000990704080000000000000000000000007B
:1019C00000000000890704080000000079070408EF
:1019D0002D09040821090408E9080408FD08040881
:1019E000A10804088D08040879080408ED0D04080E
:1019F00075070408F1060408610D040800100000D2
:101A00001000024000000000001100002800024009
:101A10000000000000120000400002400000000032
:101A200000130000580002400000000000140000F5
:101A30007000024000000000001500008800024015
:101A40000000000000160000A0000240000000009E
:101A500000170000B8000240000000000020000055
:101A60001004024000000000002100002804024091
:101A700000000000002200004004024000000000BE
:101A80000023000058040240000000000024000071
:101A9000700402400000000000250000880402409D
:101AA0000000000000260000A0040240000000002A
:101AB00000270000B804024000000000FFFF000003
:101AC00084BB0A08000008020503060000000000AD
:101AD0008CBB0A0801000802050406000000000093
:101AE000706A0A080200FE010110030000000000F5
:101AF000744B0A08030014020003000000000000F9
:101B000094BB0A0804001F02020008000000000045
:101B10009CBB0A0805001F0202010800000000002B
:101B2000A4BB0A080600250201001100FE81030083
:101B3000FFFFFFFF0000000089B3040819D7040865
:101B4000E1A20408A9D804082DB404084D9704089C
:101B50003997040831970408F83B0A08FFFF010091
:101B6000F40100002A000000E0010400E001020886
:101B70000500000000000000900104009001020830
:101B80000500000000C00000000000000000000090
:101B90000F0600000001000000000030F4220030B9
:101BA000000300010100000020D2002420E80024EE
:101BB0000003000001000000FF00000020190024C5
:101BC0000000000000000000000000000000000015
:101BD0000000000000000000000000000000000005
:101BE00000000000000000000000000000000000F5
:101BF00000000000000000000000000000000000E5
:101C000000000000000000000000000000000000D4
:101C100000000000000000000000000000000000C4
:101C20000100000001000000041B00200000000073
:041C30002000000090
:020000040804EE
:100000002DE9F04F022389468A462DED108B99B0D9
:10001000DFEDCABA14930346169004331592179372
:100020004FEADA06169DDDF85CC04FEACA0305EB1D
:1000300046111396F0004FF0000B01EB0614370148
:100040000390A6EB86020194049706EB460E04EBA0
:10005000C202041D381D06EB86072C44C6EBC608F9
:1000600002972844029D02EB46174FEAC808ED00AC
:1000700001EBC60602954FEA0E1505954FEACE052F
:100080000695139D4FEA451E019D95ED007AD344D8
:1000900092ED005AD7ED004AD945D1ED006A50EDF6
:1000A000013A35EE241AD6ED002A1CED016A73EEF2
:1000B000875A54ED017A33EEC73A36EE264A77EE88
:1000C000A21A36EE666A77EEE27A74EE256A71EE6F
:1000D000812A77EE633A37EEC57A36EEA22A77EEBA
:1000E000E47A76EEE26A0CED012A37EE247A77EEB6
:1000F000857AD1ED018AC1ED006A74EE655A96EDFC
:10010000015AB0EE460A94ED004AA7EE2B6AD2EDF2
:10011000010AE7EEAB3A74EE456AD7ED012AA7EE85
:100120006B0A9CED007AD5ED014A34EE054A37EEB4
:10013000689A90ED005A36EEE02A76EEE26A30EEEA
:10014000A28A32EE222A76EEA06AF0EE492A75EEF5
:10015000640A37EE287A75EE249AE2EE6B2A74EE82
:10016000C54AF0EE608AB0EE40AAE6EEAB4AE6EE93
:10017000AB8AA6EEEBAAF0EE496AB0EE629A37EED1
:10018000695AE2EE2B6AB0EE432A74EE08AAA7EE93
:10019000EB9AA7EEAB2A77EE297A35EE617A75EE07
:1001A000C89A35EE415A75EEC45A37EEAABA77EEC0
:1001B000EA7A37EE011A8CED00BA36EE287AC1EDF4
:1001C000017A39EE844A76EEC27A194475EE885A7D
:1001D0009C4435EE215A00ED014A70EE8A0A70EE19
:1001E000244AC5ED005A36EE686A80ED001A72EEB8
:1001F000A33A85ED015A33EE093A04ED017A72EE25
:10020000266A87ED006A1D44C6ED000A1844C2ED57
:10021000004AC4ED007A1C44C7ED016A1F44C6EDD4
:10022000013A1E4482ED013A1A443FF62EAF139A6A
:10023000072A40F2C681039A0EF1080E169F08F1B4
:1002400008000832029E059D4FF0000894463A4689
:10025000083608357244069C0499D346109207EB81
:100260000C0208340C310F92BA190E927A190D92C1
:100270003A190C923A180B927A18099207F10C026B
:100280000A9201220892149ADDF824C09044159A2B
:100290000A9F02EBC8020B9EA8EB880E0C9D02EB96
:1002A000C80192ED00BA0D9C01EBC802D1ED00AA85
:1002B0000E9802EBC80192ED00AA01EBC802D1ED45
:1002C000009A02EBC80192ED009A01EBC802D1ED51
:1002D000008A0F9902EB0E1E92ED008A109A0EEB27
:1002E000C80ADEED017A1192CDED047A0AEBC8025C
:1002F000DAED017A02EBC80A1291CDED057AD2ED62
:10030000017A0AEBC802DDF820E0CDED017ADAEDE2
:10031000017A02EBC80ACDED067AD2ED017A0AEB3A
:10032000C802CDED027ADAED017ACDED077AD2ED91
:10033000017ADDE91121CDED037A01E0F304353FC7
:1003400017ED017ADE44D2ED007A94ED005AF145C2
:10035000D5ED006A37EE274AD0ED004A77EE677A8E
:100360001CED016A96ED007A91ED001A76EE055AC1
:1003700036EE872A97ED00DA71EE24EA76EE453AFA
:1003800074EE252A31EE641A35EE466A3EEE825A44
:1003900074EE655A31EE664A72EE854A31EE471ABE
:1003A000B0EE67CA47ED014A34EE077AD1ED014A53
:1003B00031EE261AD0ED016A72EEC52A95ED014A9A
:1003C000A7EE6BCA74EEE60A96ED010AE7EE2B7A09
:1003D00092ED017A94ED015A74EEA64A3DEE473A49
:1003E000DCED006A70EEC4CA70EEC00AB0EE43EAFB
:1003F0007CEE80CA74EE001A70EE840AACEEEBEA72
:1004000036EEC54A3DEE077AB0EE63DA36EE850A7F
:10041000ACEEAB3AF0EE4EDAA1EE2BDAA1EE2B6A9F
:10042000E1EE6BDA75EE666AB0EE441AF0EE4CCA95
:1004300037EE405AA0EEAB1AE0EEEBCAE0EEAB6A44
:1004400037EE007A74EEA10A35EEE1FA75EEE45A61
:1004500075EE6EFA37EE600A71EEA55ADDED061AFA
:1004600035EE425A7FEE244A3FEE822A22EEE1FA2E
:1004700061EE80FADDED051A3EEE855A3EEE066A23
:1004800073EEAD3A21EE82EA73EE4DDA3DEE033AB9
:1004900024EEE1DADDED071A34EE2C4A7CEE266A12
:1004A00061EE85CA25EEE1CADDED041A77EE81EA38
:1004B00077EEC17AE9EEA2FADDED032AA9EE80FA21
:1004C0009DED030AAAEEA4EADDED014AAAEE82DA66
:1004D0009DED012AE8EEA5CADDED025AA8EE85CA17
:1004E0009DED025A21EEAD1A62EE832A6EEEE11AFC
:1004F00027EEC00A64EEA34A26EEC22A65EE865AAB
:1005000024EE455AABEE2E1AEBEE2D1AE8EE272A12
:10051000A8EE030AEAEE264AAAEE232AE9EE045AD6
:10052000A9EE065A37EE207A87ED007A1F44C2ED15
:1005300000FA82ED01FA1A440CED01EA8CED00DAC2
:100540009C44C4ED00CA84ED01CA1C4481ED001A2C
:10055000C1ED011A1944C6ED002A86ED010A1E44B8
:10056000C0ED005A80ED015A1844C5ED004A85EDF2
:10057000012A1D443FF6E4AE1099089A0831013271
:1005800010910F99089208310F910E9908310E9130
:100590000D9908310D910C9908310C910B99083186
:1005A0000B910A9908310A91099908310991139917
:1005B00091427FF468AE149B8A46DB009BB2149391
:1005C0002EE519B0BDEC108BBDE8F08F124B30B4A6
:1005D0001D686B6A28B943EA01430020AB6230BC56
:1005E0007047AC6A013803EB14440BD0002303F1CD
:1005F0004002013305EB8202DBB25268834204EB16
:100600001244F4D3403044EA014405EB80004460D6
:10061000002030BC704700BF80190024037870B4FC
:100620002BB30246C0F10105531912F8014FDBB29A
:10063000002CF9D101335B000E4C03220B8084F8AF
:10064000083484F80924017879B1022300265A1C61
:10065000E518023354FA82F285F80814DBB282F806
:10066000086410F8011F0029F1D170BC7047022303
:10067000E2E700BF8019002430B5EFF31181802339
:1006800083F312880A4AD2F80835D2F80C45D2F81A
:100690000805D2F80C55CAB282F31188013BA84272
:1006A00094BF4FF4006000201B1B184430BD00BFF6
:1006B00080190024012380F851307047014BD3F892
:1006C000100570478019002401207047024BC3F8C1
:1006D0001425C3F81815704780190024024BC3F87D
:1006E0001C25C3F8201570478019002470477047F7
:1006F000212870B505D0222829D0202810D000202C
:1007000070BD0029FBD0072AF9D1184B18791C6855
:100710005A799B79087100200C604A718B7170BD09
:100720000029ECD0072AEAD11148104B0C680E7949
:100730004D79D0F8182589791C601E715D71997109
:10074000002ADCD02146D0F814059047D7E70029CD
:10075000D5D0022AD3D1064AD2F82035002BCED0EC
:100760000988D2F81C059847C9E700BF000000249B
:10077000801900240020704703460A2201481A808D
:10078000704700BF080000240346642201481A8015
:10079000704700BF14000024012901D000207047D9
:1007A000014BD3F89030184700000024012901D0F4
:1007B00008F0DEBF014BD3F88C301847000000244E
:1007C000014BD3F8883018470000002410B40B7890
:1007D0000A46044603F00303012B05D0022B0BD07D
:1007E00000205DF8044B70478B8843B920461146C2
:1007F0005DF8044B0CF006BC8B88832BF6D0034BC2
:100800005DF8044BD3F88030184700BF0000002487
:1008100038B5054B04460D46DB6F98472946204600
:1008200009F07CFD002038BD0000002438B5054BE0
:1008300004460D469B6F9847294620460CF0B8FDAC
:10084000002038BD00000024F0B4002452004E1CEB
:100850002746030FB0F1204F4FEA001003F1300597
:1008600003F1370334BF0D550B5537550234A242FF
:10087000EFD1F0BC704700BF024808B5FFF7CEFECD
:10088000014808BD703E0A08881D0024024808B5CA
:10089000FFF7C4FE014808BD803E0A08881D0024F9
:1008A0000B481A220B4B00681B680A80C01801D144
:1008B00009487047094B0822094910B51C68FFF721
:1008C000C3FF042207492046FFF7BEFF024810BDC0
:1008D00000E8F11F08E8F11FB000002404E8F11F50
:1008E000B2000024C2000024024808B5FFF796FEBB
:1008F000014808BD8C3E0A08881D002408B520B9AF
:100900000448FFF78BFE044808BD0448FFF786FE45
:10091000014808BD983E0A08881D0024BC3E0A080C
:10092000042301480B807047CC000024074A084B81
:1009300010B4122492F8240503F114020C8001284B
:100940000CBF184610465DF8044B70478019002410
:10095000D0000024D8B18268104B1AB1072283F866
:100960002A25704793F828050421C3F83425032865
:10097000C3F8382583F83C250CBF80224FF48072E1
:1009800083F82A15C3F82C25C3F830257047034B8C
:10099000012283F8102783F8292570478019002445
:1009A00070B5574C00234FF4F072202104F284708C
:1009B00084F8803759F014FB04F664104FF4F07299
:1009C000202159F00DFB94F8450B10B194F8463BEB
:1009D0000BB9002070BD44F035FEC4F8540B28B1AB
:1009E00083790BB1412BF4D12323C3800D21454ED4
:1009F00045F01AF8D4F8540B45F040F994F8460B3A
:100A0000013840B245F0DCFF02231021C4F84C0B42
:100A100084F8483B50F04EF8B6F8F610D4F84C0B7A
:100A200050F048F8D4F8540B45F022F9FF218C20FF
:100A300050F06CFF0546D4F8540B45F01FF9042123
:100A4000D4F84C0B50F036F81B2D05D0D4F8540BCD
:100A5000202144F0E9FFBCE70122D4F8543B84F89C
:100A600080270BB12322DA80B6F8F610D4F84C0BAD
:100A700050F020F8D4F8540B45F0FAF840210A2041
:100A800050F044FFFF218A2050F040FFD4F8540B6F
:100A900045F0F4F8D4F84C0B042150F00BF8082181
:100AA000D4F84C0BA6F8F61050F004F8B6F8F6108F
:100AB000D4F84C0B4FF0FEFFD4F8540B45F0D8F8A7
:100AC0000221002050F022FFD4F8540B45F0D6F854
:100AD000D4F84C0B04214FF0EDFF94F85D2B94F803
:100AE0005E3B0120C2F1200294F85C1BC3F11003AD
:100AF00084F85F2B84F8603B84F8581B70BD00BFFE
:100B000080190024000000240F4B07B5D3F8F8200B
:100B10005208B2FBF1F3B3F5803F02D3012AF7D8B4
:100B2000F9E799B2019056F089F9084941F2D033BA
:100B3000074A0198CA5001F59E510022103103B0B6
:100B40005DF804EB56F020B8000000248019002462
:100B5000350206082DE9F0478846002951D046188D
:100B6000451EDFF8A4908024013EDFF8A0A0EFF33B
:100B7000118184F31288D9F80825C9B2D9F80C0577
:100B8000D9F80835D9F80CC581F31188634594BFAD
:100B90004FF400630023121A1344012B1AD10120D1
:100BA00042F024F9EFF3118184F31288D9F8082573
:100BB000C9B2D9F80C05D9F80835D9F80C7581F304
:100BC0001188BB4294BF4FF400630023121A1344F0
:100BD000012BE4D0EFF3118284F31288D9F80C359D
:100BE000D2B215F8011F534483F8E012D9F80C353E
:100BF0000133C3F30A03C9F80C3582F31188B542F7
:100C0000B5D14046BDE8F08780190024782A002439
:100C1000F8B5002390F8505080F85030CDB10F4E09
:100C200096F87C2D032A16D1D6F8B47D00F13C0449
:100C300029462046FFF78EFFD6F8B43D2D1A04440E
:100C4000DB1B322B01D8002DF2D1B5FA85F040091B
:100C5000F8BD0120FCE71846FAE700BF782A002417
:100C6000002280F85120D3E790F85020531C024412
:100C7000DBB280F8503082F83C1090F851200AB175
:100C8000132B00D9C4E77047F8B50B4E0D46144638
:100C900096F87C3D032B0ED1D6F8B47D002C0ADDEE
:100CA00021462846FFF756FFD6F8B43D241A0544DE
:100CB000DB1B322BF2D9F8BD782A00240F49D1F87A
:100CC000983D10B5B3B191F8F04AD3F8042244B17D
:100CD00000244023D1F8B00D01210CF019FA204670
:100CE00010BD4FF40073D1F8B00D01210CF010FAD3
:100CF000204610BD0224204610BD00BF782A0024E3
:100D000010B50C4CD4F8103563B10B49013BD1F848
:100D1000B82DC4F8103512F8014BC1F8B82D047085
:100D200013B10123184610BDFFF7C8FF0123184671
:100D300010BD00BF80190024782A002413B5074C89
:100D4000D4F8B83D03B9FEE701A8FFF7D9FF0028A2
:100D5000F6D09DF8040002B010BD00BF782A002430
:100D600010B50B68064C074AC4F81035C2F8B80D28
:100D70000BB1002010BDFFF7A1FF002010BD00BF88
:100D800080190024782A0024154BDB68C3F3022362
:100D900010B4C3F107041A1D042C28BF0424062A2A
:100DA0004FF0FF328CBF033B0023A240002821EA12
:100DB000020101FA03F108DB09010A4BC9B203443D
:100DC00083F800135DF8044B704700F00F00090131
:100DD000054BC9B2034419765DF8044B704700BF58
:100DE00000ED00E000E100E0FCEC00E02A4B41F205
:100DF00087302A490022D3F8F830A1FB0313284991
:100E0000DB0C10B5274C013B82B0C4F8C80D04F6CA
:100E1000BC50C4F8BC1DC4F8CC2DC4F8C42DC4F813
:100E2000C03D12F0E1FD204B06213720D3F8E82029
:100E300042F02002C3F8E820D3F8E83003F02003A2
:100E40000193019BFFF7A0FFD4F8BC3D4FF40000D5
:100E50001649174A4860D96841F00101D96099687C
:100E60000A40062A06D0B2F5803F03D01A6842F045
:100E700001021A600F490020D4F8983D0E4A01F68D
:100E80001C34C3F81002C2F82005C2F81805C3E9E3
:100E9000814102B010BD00BF0000002483DE1B436F
:100EA00000140040782A00240044025800E100E0C9
:100EB00007000100582D002480190024014BD86040
:100EC000704700BF50400058012008B5FFF7F6FFFB
:100ED00072B656F0A5F800BF03689B0AA3F580130D
:100EE000522B00D970470D4A70B5D45C84B00D2CDC
:100EF00012D800294FF0000309494FF0010514BF33
:100F00001E460226427901EB84106946CDE9006550
:100F1000CDE902330FF084FA04B070BDC8BE0908F1
:100F2000744000240D4B4FF6FF71D3F8F82010B534
:100F30000446520855F082FF00212046FFF7CCFFFF
:100F40000749084A41F2D4332046CA5001F59E5160
:100F500000221431BDE8104055F016BE00000024F8
:100F60008019002445D505084309012200F01F001F
:100F70008AB0023B02FA00F0082B11D8DFE803F038
:100F8000665A4E42362A1E120500364BD3F8F4201C
:100F90000243C3F8F420D3F8F42010400190019BE1
:100FA0000AB070472F4BD3F8E0200243C3F8E0208B
:100FB000D3F8E02010400590059BF1E7294BD3F8CA
:100FC000E4200243C3F8E420D3F8E4201040029068
:100FD000029BE5E7234BD3F8D4200243C3F8D42087
:100FE000D3F8D42010400690069BD9E71D4BD3F8C8
:100FF000DC200243C3F8DC20D3F8DC20104008904A
:10100000089BCDE7174BD3F8D8200243C3F8D8206C
:10101000D3F8D82010400990099BC1E7114BD3F8B1
:10102000EC200243C3F8EC20D3F8EC2010400390EE
:10103000039BB5E70B4BD3F8E8200243C3F8E82045
:10104000D3F8E82010400490049BA9E7054BD3F89F
:10105000F0200243C3F8F020D3F8F02010400790AE
:10106000079B9DE7004402582DE9F04FDFF8DC8034
:101070002A4D44462DED068B8DB0CDE90A01049230
:101080000FCD0FC40FCD0FC4254B95E8070093F883
:10109000C63884E80700042B00F2A981DFE813F0CA
:1010A000D801A701A2010500E6019FED1E8ADFED30
:1010B0001E9A1E4A1E4B04981E49002818BF13464C
:1010C0001D4AC8E9062139EE887ADFED1C7AF5EE73
:1010D000006ADFF87CB04FF0000928EE278AB0EEF6
:1010E000679ADA4686EE87AAC8F82430DFED148ABC
:1010F000CB46144B05930B9B5B4500F06D81059A25
:101100000BF1010312F8017BDEB206930592002F6A
:1011100000F0D88100230C4820E000BF1CBF090864
:10112000703B0024ACC5A737ACC5A736E945080815
:1011300015560708195B0708F54508086F12833A2A
:1011400000007A443B440024504400241400002052
:10115000480000200133152B00F0B48103EB43025B
:101160004FEA4309815CB942F4D1C74B1A4492F863
:10117000E118002900F0AE8138463DF05BFC0468C0
:1011800005460390204655F0DBFE69793DF090FC62
:1011900002780892002A40F095813D09BA4B07F089
:1011A0000F02013D4B444FF00309062D83F82169DE
:1011B00083F8209900F24381B44B029303EB45037B
:1011C000B3F8800040FA02F313F0010300F03D8110
:1011D0000124AF4F04FA02F3013B184059F07AFFA3
:1011E000029BAC4A1D4495F890100144039807EB0C
:1011F000C105EE7185F8069057F83130CAF81450E1
:101200001A44029B007A920A079003EB4202B2F85A
:101210009800FFF7A9FEAE8857F83110002E39D09C
:10122000089BA646CDE908BADDF81CA00EFA03F526
:101230002E4229D0DC0803F007024FF00F0C5800B3
:1012400001EB84044FF0020B9200276A0CFA02FCB7
:101250000AFA02F227EA0C0C09FA00F70BFA00F07E
:1012600042EA0C0222620A6822EA0702104308607E
:101270008A6822EA07028A604A6822EA05054D6008
:10128000CA6822EA0707CF60013336FA03F2CDD1EC
:10129000DDE908BA039B1C68049B002B00F0BD80AD
:1012A000794BB3F8C43807EE903AF8EEE77AFCEEE3
:1012B000E77A17EE905A784B9C420FD003F5806383
:1012C0009C420BD0754A03F580439C4218BF944260
:1012D00004D003F580639C4240F0AA8012F0BCFE6B
:1012E0006F4BD969C1F302216D4A4FF6FF73126942
:1012F000C2F3C03241EAC201029A0A44049992F848
:10130000AC2000FB02F0B0FBF5F21A44120CB0FB6B
:10131000F2F2002970D05C49B2FBF5F591F8C618DD
:10132000ABB204296ED007EE902AF8EE676A66EE3B
:10133000887A28EEE77A544991F8C708A6EEA97A88
:101340000A990190504600910399CAED027A8AEDFC
:10135000037A35F007FEBBF1000F65DDDAF80430E3
:10136000D8F83820934261D0BBF1010F5CD0D8F897
:10137000502093425AD0BBF1020F55D0D8F86820C4
:10138000934253D0BBF1030F4ED0D8F88020934244
:101390004CD0BBF1040F47D0D8F89820934245D0E9
:1013A000BBF1050F40D0D8F8B02093423ED0BBF13E
:1013B000060F39D0D8F8C820D31A18BF0123DDF89A
:1013C00018B001228AF810300AF1180ABBF1080F90
:1013D0000AF8072C7FF48FAE32480DB0BDEC068BB7
:1013E000BDE8F08F9FED308AF0EE489A61E69FED00
:1013F0002F8AF0EE489A5CE623491D4691F8C618FC
:10140000042990D107EE905A07EE102AF8EE677A79
:10141000F8EE476A67EE897A8BE7FAFE4A7AFCEEC5
:10142000E77A17EE905A46E70123C8E70023C6E79C
:1014300012F02AFE1A4BD969C1F3021154E7089B36
:10144000CAF81430114B029326E7CAF8143023E788
:101450000023174A01219FED178A0A93164BF0EEDD
:10146000489A0491C8E90632144B2CE60023104A2E
:1014700001219FED138A0A930F4BF0EE489A0491D5
:10148000C8E906320D4B1EE6703B0024C8BE0908B1
:10149000BC4400240000FEA70000014000400140C1
:1014A0000044025814000020282930386F120339F4
:1014B000195B07086F12833AF5450808E9450808E3
:1014C00000000000044A0020044BC8F81C20C8F8A3
:1014D000243082E70B68FFDE01590708E945080858
:1014E000002850D0284A2DE9F84F0446274B0068C1
:1014F00003449B0A02EB4303B3F89800FFF734FD63
:10150000B4F804C02268BCF1000F3AD000204FF0BC
:10151000010B4FF00F0A4FF0030900F007030BFA1D
:1015200000F645004FF0020EC7081CEA060F4FEA0E
:10153000830309FA05F402EB87070EFA05F500F1BB
:1015400001000AFA03FE01FA03F317D0D7F820804E
:1015500028EA0E0E43EA0E033B62136823EA0403F3
:101560002B431360956825EA04059560536823EAC8
:1015700006035360D36823EA0403D3603CFA00F304
:10158000CBD1BDE8F88F7047C8BE09080000FEA7A0
:1015900000284FD0284A2DE9F84F0446274B006811
:1015A00003449B0A02EB4303B3F89800FFF7DCFC0B
:1015B000B4F804C02268BCF1000F39D000204FF00D
:1015C000010B4FF00F0A4FF0030900F007030BFA6D
:1015D00000F645004FF0020EC7081CEA060F4FEA5E
:1015E000830309FA05F402EB87070EFA05F500F10B
:1015F00001000AFA03FE01FA03F316D0D7F820809F
:1016000028EA0E0E43EA0E033B62136823EA040342
:101610002B431360956825439560536823EA0603BE
:101620005360D36823EA0403D3603CFA00F3CCD1BF
:10163000BDE8F88F704700BFC8BE09080000FEA7CC
:10164000004870471C45002470B4204D06460468CD
:10165000E36931EA030323D0D5F8CC3C9B1AB3F1FC
:10166000007F23681FD25807F2D5E3691B05EFD529
:101670004FF400622023002103202262226822F41A
:10168000D0722260A26822F00102A260C6F8803007
:1016900086F87C10C6F88430C6F8883070BC704775
:1016A000002070BC704723F4D07320220021032057
:1016B0002360A36823F00103A360C6F8802086F8A6
:1016C0007C10C6F8842070BC704700BF703B0024BB
:1016D000F8B5044690F88000012800F0AB80B94EC0
:1016E00001272068D6F8CCCC94F8815084F880701B
:1016F000012D5FFA85FE67680BD0B7F5800F40F0CB
:101700008F80A568002D40F08B80BEF1040F40F063
:101710008780002B18BF002A00F08780002900F086
:10172000848094F88150042D02D0052584F88150DE
:101730004FF0000E6266A44DB7F5800FC4F884E048
:10174000A4F86A30A4F862304268A4F8683005EA68
:101750000205E165A4F8603045EA0305C4E91CEE22
:101760004560026842F00102026003D1026842F45F
:1017700000720260E2680F2A60D91A4648F2080730
:10178000416989070ED56BB1E16D51F8043B0362E5
:10179000B4F86230E165013B9BB2A4F86230B4F862
:1017A00062309BB2416943EA02053942ADB211D0C1
:1017B000002A41D0056BB4F86A20616E013A41F805
:1017C000045B92B26166A4F86A20B4F86A2092B20F
:1017D00042EA0305002DD3D1D6F8CC3CA3EB0C0391
:1017E000092B70D843691B070BD4D6F8CC3CA3EB6C
:1017F0000C03092BF6D9D4F8843043F02003C4F845
:10180000843020460CF03CFA0122002384F8812029
:10181000D4F8840084F88030C01A18BF0120F8BDC5
:101820000023022084F88030F8BD0023012084F8D2
:101830008030F8BD0220F8BD1D46CBE7072A52D8FC
:10184000024619465569AD0715D5A3B1032B40F2E1
:10185000CC80E36B402B40F2DD80E56D55F8043B16
:101860001362B4F86230E565043B9BB2A4F86230C1
:10187000B4F862309BB2556915F4604F12D089B14B
:101880005169090440F18980156BB4F86A20616ED2
:10189000043A41F8045B92B26166A4F86A20B4F895
:1018A0006A1089B2D6F8CC2CA2EB0C02092A54D8C3
:1018B00043EA010292B2002A00F0C780226855690B
:1018C000AD07D8D5C1E720460CF0DAF9D4F884305A
:1018D000012284F8805043F480731046C4F88430A9
:1018E00084F88120F8BD19464269920713D593B157
:1018F000012B43D9E36B002B40D0E26D52F8043B3F
:101900000362B4F86230E265023B9BB2A4F8623035
:10191000B4F862309BB2426912F4604F11D081B1C9
:101920004269170452D5056BB4F86A20616E023A19
:1019300041F8045B92B26166A4F86A20B4F86A10B8
:1019400089B2D6F8CC2CA2EB0C02092A05D843EABE
:10195000010292B2002AC7D144E720460CF090F968
:10196000D4F884300122002143F48073104684F8B7
:101970008010C4F8843084F88120F8BDE26D32F81C
:10198000023B0384B4F86230E265013B9BB2A4F8E9
:101990006230B4F862309BB2BDE7516901F4C041D6
:1019A000B1F5005F47D9028E616E21F8022BB4F8C1
:1019B0006A206166023A92B2A4F86A20B4F86A100A
:1019C00089B26FE7703B00240000FFFF028E616E5A
:1019D00021F8022BB4F86A206166013A92B2A4F8A9
:1019E0006A20B4F86A1089B2ABE7012B11D1E36D1C
:1019F0001B7882F82030B4F86230E56D013B226834
:101A000001359BB2E565A4F86230B4F862309BB250
:101A100031E7E36B002BEAD0E56D35F8023B038438
:101A2000B4F86230E565023B9BB2A4F86230B4F8CA
:101A300062309BB21FE792F83010626E1170B4F8FA
:101A40006A20616E013A013125E72068CAE600BFCD
:101A5000034690F83C00012800F0AF810220F0B569
:101A6000012483F83D0083F83C40142A54D8DFE871
:101A700012F05B005300530053009E0053005300CC
:101A800053006701530053005300DE00530053001E
:101A900053001D0153005300530015001A68D1F87C
:101AA00008C0156A0F6825F480159F4E1562B24272
:101AB000106AD2F804E0546D20F4001024F4E044DD
:101AC00040EA0C5044EA07240ED0984DAA420BD0AD
:101AD00006F5804605F58045AA4218BFB24203D0FC
:101AE00005F58065AA4204D12EF4003E4D694EEA08
:101AF000852E4D68C2F804E05465D5651062506DBE
:101B00000C6940F400605065506D20F480605065B1
:101B1000516D41EA0421516500220121104683F8EC
:101B20003D1083F83C20F0BD1A688E68156A0F6876
:101B300025F001057E4C1562106A556820F0020000
:101B4000D2F818C03043784E0CEA0404B24244EA9A
:101B500007040ED006F58066B2420AD0754F06F52E
:101B60008046B24218BFBA4203D006F58066B24240
:101B70000BD1CE6820F008008F6925F44075304302
:101B80004E693E4320F0040035434E685560946131
:101B90005663106290690C6940F00800906190698A
:101BA00020F004009061916921439161B4E71A68C3
:101BB0008E68156A0F6825F010055F481562146A73
:101BC000D2F804C024F02004956944EA0614564E65
:101BD0002840B24240EA072000F0F180534DAA426B
:101BE00000F0ED80534E554DAA4218BFB24203D0CB
:101BF00005F58065AA4206D14E692CF4406C8D69CA
:101C000035434CEA850C4E68C2F804C09061966377
:101C1000146290690C6940F400609061906920F44E
:101C200080609061916941EA0421916174E71A68CA
:101C3000D1F808C0156A0F6825F480553A4E156230
:101C4000B242106AD2F804E0D46920F4005024F4BF
:101C5000E64440EA0C3044EA07240ED0334DAA4251
:101C60000BD006F5804605F58045AA4218BFB24262
:101C700003D005F58065AA4204D12EF4804E4D694B
:101C80004EEA851E4D68C2F804E0D4611564106206
:101C9000D0690C6940F40060D061D06920F48060A4
:101CA000D061D16941EA0421D16135E71A68D1F8E0
:101CB00008C0156A0F6825F480351B4E1562B242C4
:101CC000106AD2F804E0546D20F4003024F070045F
:101CD00040EA0C4044EA07040ED0144DAA420BD04F
:101CE00006F5804605F58045AA4218BFB24203D0EA
:101CF00005F58065AA4204D12EF4803E4D694EEA76
:101D0000052E4D68C2F804E0546595651062506D6B
:101D10000C6940F008005065506D20F004005065DB
:101D2000516D21435165F7E6000001400004014078
:101D30008CFFFEFF00400140FF8CFFFE004401408D
:101D40001A68D1F808C0156A0F6825F48075244E0A
:101D50001562B242146A5568D06924F4007420F008
:101D6000730044EA0C2440EA070030D006F5806690
:101D7000B2422CD01B4F1C4EB24218BFBA4203D005
:101D800006F58066B24206D125F440574E698D694A
:101D9000354347EA05154E685560D061D663146235
:101DA000D0690C6940F00800D061D06920F00400CF
:101DB000D061D1692143D161AEE60220704724F0A1
:101DC0008004CE6844EA061424F0400414E724F4A6
:101DD0000064CE6844EA062424F48064D4E700BF9B
:101DE0000000014000400140004401402DE9F04F57
:101DF000DFF89CB18BB0482200210BF54D6058F004
:101E0000EFF80BF618504FF43172534957F06EFF4C
:101E10009BF8DC3F1BB19BF8DD3F8BF8D03C9BF877
:101E2000DE3F1BB19BF8DF3F8BF8F43C9BF8E23FB1
:101E30001BB19BF8E33F8BF8E83C9BF8E03F1BB1FC
:101E40009BF8E13F8BF8DC3C444B0026444A1B885E
:101E500012881B09434C4449C3EB12102288CBF86B
:101E6000F43F1309414F424D424CCBF8F03F91FBF8
:101E7000F0F1CBF8F81F03E001360C37062E27D01F
:101E8000042E00F0A081052E00F0C28138780028D1
:101E9000F2D0394A002301331E2BEDD012F80C1F6B
:101EA0008842F8D103EB430C3448002204EB8C0C3D
:101EB0000168EC3029B19CF881131141C90700F188
:101EC000E1840132032AF3D101360C37062ED7D133
:101ED0002B4C0025DFF8BC90DFF8BC80294FDFF8E1
:101EE000BCA0294E54F8083C002B00F00A81D4F81D
:101EF000E020002A00F00581EC22236002FB05B2FD
:101F0000D2F8741D41F00201C2F8741D99689A68F4
:101F100001F0040102F008020A43DA684AD0920193
:101F200005D5A18A40F20112914200F0E5829A683B
:101F3000510700F1CF829A68120708D59A68910775
:101F400005D49968114A0A4042F020029A600C2197
:101F5000DBF8CC0C2AE000BF84BF090820E8F11FA1
:101F600040E8F11F60E8F11F80380100404800247C
:101F7000000084CBC8BE090848C20908884800246C
:101F800090480024200882E000210240C0FFFF7F2B
:101F9000703B00241CF800FC300882E0E03000FEBA
:101FA000DBF8CC2C121A052A00F252849A680A42F5
:101FB000F6D1DA6842F400122046DA600AF074FFC3
:101FC000002800F06882236840F2FF7C9B490022D1
:101FD000D3F804E00EEA0101DFF878E25960C3F8B3
:101FE00000C09968DFF870C221F0A041996099683B
:101FF00041F000519960D96801F08021D960D96819
:1020000041F00041D960196901EA09011961596972
:1020100001F040415961996901F078419961196A6B
:1020200001F07C411962596A01F07C415962D3F890
:10203000B01001F07C41C3F8B010D3F8B41001F037
:102040007C41C3F8B410D3F8B81001F07C41C3F858
:10205000B810D3F8BC1001F07C41C3F8BC10196B68
:1020600001EA08011963596B39405963996B39408A
:102070009963D96B01EA0E0E7149C3F83CE08B42BB
:10208000D3F860E01A66D3F864E05A66D3F868E0E3
:102090009A66D3F86CE0DA66D3F8A02002EA0C0264
:1020A000C3F8A020D3F8A42002EA0C02C3F8A420AD
:1020B000D3F8C02002EA0C02C3F8C020D3F8C42031
:1020C00002F0F822C3F8C42000F06B81B34200F0A4
:1020D00068815C4B9B68DB0704D45B4B9A6802EA1F
:1020E0000A029A60EC22002302FB05B2C2F8783D96
:1020F000C4E91733C2F8743D84F85030002840F02A
:102100004F810135EC34032D7FF4ECAE4FF0000924
:10211000DFF848814F46454655F86C3C1BB1EB6FE4
:10212000002B40F049810137EC35032FF4D14FF0FB
:102130000008464DDFF828914646DFF828A12B68B5
:10214000002B00F02581D5F8E820002A00F020813E
:10215000AC683B4B9C4200F02D814C4500F02A813D
:1021600039488368A16849072CD495F8581001298B
:1021700028D003F01F030121092B85F8581000F225
:10218000B48140F22121D940CF0740F1AE81A1684E
:1021900011F001017CD1D4F808C02D4F1CEA070FC3
:1021A0003DD0EC2303FB06B6D6F8743D86F8701DCF
:1021B00043F01003C6F8743DD6F8783D43F00103B0
:1021C000C6F8783DFEE702214FF4002CAE460A46E1
:1021D000EC2007237970012100FB02B23878BB7232
:1021E000D2F8003EC7F804E043EA0C037972C2F863
:1021F000003E00283FF440AE43F024FAF31DDBB26A
:1022000010B100228371C271032143F00DFC33E64B
:1022100002214FF4802CDFF850E00A46D8E7A1688D
:1022200001EA0A0141F00101A160DBF8CC7C816880
:10223000C8062AD04C4528D12AE000BF00F8FFFF8D
:1022400000200240006002580063025888480024C1
:102250003F00008020F8FFFF0000F0FFF44800245A
:1022600000210240C0FFFF7F0000B8CFA168C9076E
:1022700005D4A16801EA0A0141F00101A160DBF87F
:10228000CC1CC91B022900F243842168C807EDD584
:10229000EC20AF494C4500FB06B0D0F8747D01EA54
:1022A000070141F48071C0F8741D00D143B9EC23DB
:1022B00003FB06B3D3F8741D21F48011C3F8741D19
:1022C000EC2303FB06B3D3F8741D11F4805140F0E6
:1022D0004B83C3F8781D5308686D9708DFF89CC2DC
:1022E00003F07733D10807F03337C0F83CC0DFF88C
:1022F00090C201F011313B44964FC0F840C04FF0FE
:102300001C0CD31AC764C4F800C05B1A62680021B1
:1023100042F0100203EB131385F8581004F140014A
:10232000626003F00F33FF22E768B3FBF2FC27F093
:1023300003076A6BCCEB0C2C1743874AA3EB0C0307
:1023400002EB4802E76009F01BFFAA68936803EA02
:102350000A0343F004039360002840F0CD83D5F8CE
:10236000E8305A08980802F07732D90800F0333084
:1023700001F0113102449B1AFF225B1A03EB131385
:1023800003F00F33B3FBF2F2C2EB02229B1A984424
:102390000136EC35032E7FF4D2AE0BB0BDE8F08FE2
:1023A000FEE76E4B9B68B2681343DA073FF59AAEBF
:1023B0006B4B93E66A48D4E635F8680C0426FEF7C2
:1023C000D3FDEB6FFF2245F8546C59089C0801F0CF
:1023D0007731D80804F0333400F01130214403245D
:1023E0005B1AEC211B1A55F86C0C01FB07B103EBCF
:1023F000131345F8640C4FF4403003F00F3345F8E5
:10240000600C0820B3FBF2F2C2EB022245F85C0C30
:1024100001209B1A002245F8580C45F84C3C4FF41B
:10242000805305F84F0C45F8440C05F8502C05F87E
:10243000482C05F82C2C049245E9102245E90E435E
:10244000D1F8743D002B00F0188255F8646CB36825
:102450009C0003D5B268434B1340B360B36813F0DC
:10246000805F414B1ED00193B368D8005FD5002434
:10247000B368590740F18680EC2303FB07B3D3F818
:10248000743DEC2303FB07B3D3F8742D42F0100224
:10249000C3F8742DFEE7EC23012203FB05B3C3F858
:1024A000742D90E5B1681A460193304BD2F8F820AC
:1024B0000B402F49B2FBF1F243F08053B36004921A
:1024C000049B002BD0D0049B013B0493049B002B66
:1024D000F9D1C9E79A6891073FF52DAD9968254A6A
:1024E0000A4042F010029A6025E5EC22002302FB2C
:1024F00006B686F8703D65E61A68500607D41E4A8F
:1025000002E0013A00F0A48119684906F9D5402299
:102510001A609A68500708D59A68900705D4996898
:10252000144A0A4042F010029A60042110E5EC239C
:10253000012403FB07B3D3F8742D42F01002C3F853
:10254000742DD3F8782D2243C3F8782D90E700BF7F
:10255000FEF0FFFFC59D040800000030002002408F
:1025600000230240C0FFFF5F00000024C0FFFF6F98
:10257000400D0300C0FFFF7F00DC0C00DD9D040860
:10258000D99D0408EC2303FB07B3D3F8742DD206BE
:102590003FF577AFD3F8742D22F4817242F0020236
:1025A000C3F8742DB368DA0714D4BD4B9E4200F013
:1025B000A58203F580739E4200F0A082B94B9B6810
:1025C000D80707D4B8498B6855F8602C23F47C13DE
:1025D00013438B60B54A41F203031268B3EB124F09
:1025E00055F85C2CC0F0C78155F8343C15F84F0CF9
:1025F000134315F8481C43EA403343EA01430129D9
:1026000004D155F8442C013A43EA424355F8402C92
:102610002AB102F4787255F83C1C0A431343F1685E
:10262000A34A0A401343F360B068B36800F00400A3
:1026300003F00803184300F0478155F8643C55F84F
:10264000582C012A00F0B8821A6B22F00F021A638C
:10265000EC2606FB07B6D6F8743D06F6745A23F04E
:10266000030343F00103C6F8743D002C40F00D82D3
:1026700015F8143C0594012B00F0A281A5F1640328
:1026800018460393012305F8143C0AF00DFC0028BA
:1026900040F0E281D6F8741D864A874B0A4087498C
:1026A00042F00202C6F8742D55F8642C906803407D
:1026B00043F0004393609368002BC0F26C81EC22DE
:1026C0000020DFF800C202FB07B201460090D2F8FA
:1026D000743D23F0030343F00103C2F8743D05F891
:1026E000140C07E0009B0CF10C0C0133062B00933B
:1026F00000F067819CF80930002BF3D09CF9013081
:10270000BB42EFD16E4B00224E1C8CF8089003EBBD
:10271000810015F8143C09F101010692012BD0F853
:10272000E844DCF80420029100F0AE8155F8643CE6
:102730000120996805F8140C490700F19681C2F34D
:102740001308B8F1000F40F0A181C2F3846E910E1E
:1027500000FA0EF0D3F81CA04FEA941903F1300EE2
:1027600004F01F044AEA000A09F00C004FF01F09A8
:10277000C3F81CA001EA090150F80EA009FA04F9F7
:10278000A1402AEA090949EA010140F80E109868B7
:10279000996800F0040001F00801014345D1D10D12
:1027A000C2F3045A03F114044FF0070901F00401C5
:1027B0004FF0060E09FA0AF908590EFA0AFEDFF878
:1027C000ECA020EA090040EA0E000851DAF80010F7
:1027D00001F07041B1F1805FD96800D0D968196EFD
:1027E000900601F0F841B1EB826F03D1196E21F030
:1027F00000411966596E01F0F841884203D1596EC3
:1028000021F000415966996E01F0F841884203D1E8
:10281000996E21F000419966D96E01F0F841884225
:1028200003D1D96E21F00041D9669968C80708D450
:10283000D3F8C010002A21EA0801C3F8C010C0F282
:102840002F8100233146DDF8089005F8143C49E754
:10285000EC22012002FB05B2D2F8741D41F01001F8
:10286000C2F8741DD2F8781D0143C2F8781DDA68E9
:1028700042F40012DA60FFF7A6BBC1F8783D05F814
:10288000143CE2E50C204FF0010C51B200FB034375
:1028900093F88803D3F884E30CFA00FC98E400BFB3
:1028A0000020024000600258006302580010005CE3
:1028B00003C0F0FFFDEEFFFFC0FFFE3F00F8C325A1
:1028C000C8BE090840480024F368C74A15F8501CE0
:1028D0001A4055F8383C42EA813215F82C1C134353
:1028E0000129F36000F09C81336923F00103336117
:1028F000326955F8303C22F07042BC4913438E4295
:10290000336100F06981BA4B9E4200F06581B94B9A
:102910009B6813F4403F14BF01230023002B00F0F9
:10292000B38111F0C9FB55F8603CB3F5003F00F0EE
:10293000A781B3F5403F00F09281B3F5803F00F0EE
:102940009F81AD4A41F203031268B3EB124FC0F00E
:102950007C81AA4B984240F2388155F8643C9A68D1
:1029600042F480729A606AE6D3F8781D21F006017D
:10297000C3F8781DAFE4102A7FF436AE15F8481C72
:1029800015F84F0C0B0455F8342C43EA403313432D
:1029900043F01C0333E6059B01330593059B8B42F3
:1029A000FFF489AEEC23002103FB07B3D3F8742DA9
:1029B00083F8701D22F0120242F01002C3F8742D49
:1029C000FEE78F4BFEB202203B44314693F91020C4
:1029D00043F018FBD0F804800446404643F07EFBE9
:1029E000019A431E02EB431393F81421002A7FF44B
:1029F000D4AC0136009983F8156183F814110028CE
:102A00003FF4CBACD3F8FC004FF4005CA3684FF468
:102A10008071AA604FF480666B604FF400644FF4DD
:102A20008033EA60774AC5F8008090420CBFA0204E
:102A3000A1202E61C5E90713C5E9054CFEF794FAFC
:102A4000284609F047FD284609F0ACFE039B45F8EF
:102A5000185CAB63FFF767BBDAF8003086F8704D9F
:102A600043F01003CAF80030AAE7EC2303FB07B3D6
:102A7000D3F8742D42F02002C3F8742DEC23002209
:102A800003FB07B383F8702DFEE703E592FAA2FE7D
:102A9000BEFA8EFE910E0EF01F0E00FA0EF059E6F1
:102AA00052498B4248D001F580718B4244D056493F
:102AB00050488468896804F0E07EC94301F0010150
:102AC0000029D2D051498A4257D051498A4244D034
:102AD00050498A427FF4B5AE64023FF5B2AE4A4A2D
:102AE00093427FF4AEAE836823F0E07343EA0E03B3
:102AF00043F480038360A4E6FFF764BB3B4B3C4A8E
:102B00009B6892681343DB073FF564AD42495AE581
:102B1000EC23002203FB06B6D6F8743D86F8702D30
:102B200043F01003C6F8743DD6F8783D43F0010336
:102B3000C6F8783DFFF746BB37498C680846A1F5D3
:102B4000407104F0E07ED1F80890D1F8088149EA9C
:102B50000801C94301F00101B2E7E2013FF571AE9E
:102B6000294A93427FF46DAE836823F0E07343EA11
:102B70000E0343F08073836063E621023FF561AE8C
:102B8000214A93427FF45DAE019B8268D3F8F8300E
:102B9000224922F0E072B3FBF1F342EA0E0E5A0032
:102BA0004EF400038360069202E0069B013B06930D
:102BB000069B002BF9D144E6196B55F84C2C21F0FB
:102BC0000F01013A0A431A6342E555F8643C9A68DA
:102BD00022F480729A6032E50F4B9B6813F4403FF9
:102BE00014BF0123002399E6FCBFFFFF0020024031
:102BF00000210240006302580010005C002D3101EA
:102C00004C4B00240000024000600258000084CBBE
:102C1000000052C70000B8CF00230240400D03005F
:102C200055E9093155F8282C0B43D6F810C0013A64
:102C300055F81C1C43EA02434E4A0B4302EA0C02BD
:102C4000134343F00103336152E64B4B984208D8DB
:102C500055F8643C9A6822F440729A60EFE4800868
:102C60006FE6464B984242D9454B984255F8643C32
:102C70009A6825D822F4407242F400729A60DEE429
:102C80001B0CB0FBF3F05CE63E4A936D03F440335B
:102C9000B3F5803F5ED0B3F5003F4ED0002B62D03D
:102CA00055F8603CB3F5101F45D00DD8B3F5E01FC3
:102CB0003FD025D9B3F5001F7FF443AE400940E66D
:102CC00042F440729A60BAE4B3F5201F50D0B3F5D5
:102CD000301F7FF436AE2C4A41F203031268B3EB87
:102CE000124FBFF472AF244BB3EB102FB0D255F894
:102CF000643C9A6822F4407242F480729A609EE4C6
:102D0000B3F5801F07D00BD9B3F5A01F03D0B3F5DF
:102D1000C01F7FF416AE9B0C5B00B0FBF3F010E617
:102D2000B3F5002FF7D023F40022B2F5802FF2D0B4
:102D300007E6000905E6800903E6D36C13F040536B
:102D40000FD0B3F1805F0AD0104AB3F1005F08BF23
:102D50001046A5E707A80BF03FFA0998A0E70C4832
:102D60009EE70C489CE707A80BF0E2FA079897E764
:102D7000C009E6E51EF800FC21BCBE0041787D01DB
:102D800081F0FA02004402580010005C00127A0040
:102D900000093D000090D0032DE9F041D0F800E09B
:102DA0000C46DFF8588084B0DEF804501746DFF890
:102DB00050C0194605EA0805DDF828800646039349
:102DC0002C43424644EA0C0CCEF804C011F00EFD30
:102DD00078B931680246039B30468F628021CDF876
:102DE000008011F033FD003818BF012004B0BDE8A9
:102DF000F081012004B0BDE8F08100BF009800FC24
:102E000000200181F8B5134F04460D460AE09B6986
:102E1000DB0602D511F0AAFCD0B9D7F8CC3C5B1B7D
:102E20000A2B08D823682A460A2120469E69B6063E
:102E3000EDD50020F8BD636C2021002201200B435A
:102E400084F84020636484F8411084F84220F8BD7F
:102E50000120F8BD703B00242DE9F041D0F800E0DE
:102E60000C46DFF8588084B0DEF804501746DFF8CF
:102E700050C0194605EA0805DDF828800646039388
:102E80002C43424644EA0C0CCEF804C011F0AEFCD0
:102E900078B931680246039B30468F624021CDF8F5
:102EA000008011F0D3FC003818BF012004B0BDE849
:102EB000F081012004B0BDE8F08100BF009800FC63
:102EC00000200180484AF8B592F8FC4F474E04EBC9
:102ED0004403650006EBC30313F8F83C032B77D8D3
:102EE000DFE803F0492A1F02254406EBC50555F823
:102EF000F43C002B6ED116F8981C8C4268D001343B
:102F000004F00300814282F8FC0F61D000EB400422
:102F10000222184606EBC40444F8F43C04F8F82CEA
:102F2000F8BD2B1906EBC30353F8F42C72B1013A28
:102F3000002043F8F42CF8BD2B1906EBC30353F81B
:102F4000F42C002AF3D1022203F8F82C254406EBD6
:102F5000C50515F8EC3C013BDBB205F8EC3CF3B1E0
:102F6000234B0120D3F8FC2202F2E733B3FBF2F348
:102F700045F8F43CF8BD43F049FE48B31C4A42F220
:102F80000F732C440121D2F8FC2206EBC404134435
:102F900004F8F81CB3FBF2F344F8F43CF8BD144B0E
:102FA000601C032755F8F01CD3F8FC22384016F8B3
:102FB000984C531E05F8F87C001B0B4418BF0120E9
:102FC0009A42B3FBF2F188BF002045F8F41C30B9F7
:102FD0000120F8BD013B002045F8F43CF8BD013963
:102FE00045F8F41CF8BD00BF703B0024684C002479
:102FF00000000024F8B5374F0546374C082157F834
:10300000940CD4F8CC6C0AF077FB00B1F8BD57F8FB
:10301000501C57F8940C09040AF00EFB0028F5D157
:1030200057F8943C4FF0FF31082259629A62013000
:103030001F28FCD9DA6A0020284941F2331C22F00B
:10304000FF0242F03302DA6298601846DA681140F3
:1030500041F2883241EA0C0C3321C3F80CC00AF06B
:1030600051FA0028D2D157F8942C8446074640F2F2
:103070002A5104E0D4F8CC3C9B1B01331ED0536B87
:103080000B42536B09D11B03F4D40028F2D1D2F8C0
:1030900080700120D2F880C0ECE7190714D4536B7C
:1030A0009B070ED4506B10F0200010D19CFA8CF3CB
:1030B0003FBA0B499163C5E90037F8BD4FF00040B6
:1030C000F8BD02209063F8BD08209063F8BD202071
:1030D0009063F8BD684C0024703B0024C0E0FEFF04
:1030E0003A0F001870B5114C41F20D13104D41F21A
:1030F000883254F8501C54F8940C0E040D2186604C
:10310000C66835402B43C3600AF0FCF938B154F867
:10311000602C03460020134344F8603C70BD54F813
:10312000943C5869C0F3432070BD00BF684C002434
:10313000C0E0FEFF114B30B498690025D3E9074287
:1031400020F01F019D6004FB0202521ABFF34F8F53
:10315000AA420DDD013A01F12003094822F01F02C5
:103160001A449342C0F85C12194603F12003F8D1C7
:10317000BFF34F8FBFF36F8F30BC7047684C002494
:1031800000ED00E0074B9A6822B11A690021013274
:1031900099601A61DA6822B15A6900210132D96056
:1031A0005A617047684C002470B5037884B00446B7
:1031B0001646012B24D0022B1FD1C36841F0800595
:1031C0001BB19A88196812048A6101230DF10F025C
:1031D0000DF10E0160688DF80E504EF085F8012358
:1031E0003246002160684EF07FF8E3688BB11A68C0
:1031F00001209B88936104B070BD002004B070BDB5
:1032000000920A46417990F9040051F0EDFD04B0B6
:1032100070BD0120F2E700BF2DE9F84FC24C054612
:1032200094F82410E06AC1F3400142F02DFD94F8B7
:103230002410A06AC94301F0010142F025FD002DD0
:1032400000F0DD8005F1FF39B84E4FF01008B84F9F
:103250005FFA89F9B74DE36A33B11A689B885169FF
:103260000B4218BF1B049361A36A33B11A689B8891
:1032700051690B4218BF1B049361A38E002B40F0D1
:103280004C8194F83610A06B42F0FEFCFA204FF40B
:103290007A714FF0010C7B68C3F30803002B40F0F8
:1032A0001281EFF31183002B40F00D81D6F8B42D7D
:1032B000D5F808E0D6F8B43D9A42F7D1E36D9E45C3
:1032C000F4D8D4F858A001FB0AF3A3EB0E03B3FB28
:1032D000FAF301FB02327B68C3F30803002B40F0D2
:1032E000B180EFF31183002B40F0AC80D6F8B43DF1
:1032F000D5F808B0D6F8B4ED7345F7D1D4F85CE052
:10330000F345F3D8D4F858A001FB0AFEAEEB0B0E40
:10331000BEFBFAFE01FB03E39B1AB3F57A7FDAD317
:103320000138B8D1E36A33B11A689B8851690B42FE
:1033300018BF1B049361A36A33B11A689B88516953
:103340000B4218BF1B049361A38E002B40F0DB805F
:1033500094F83610A06B81F0010142F095FCFA2040
:103360004FF47A714FF0010C7B68C3F30803002B14
:1033700040F08980EFF31183002B40F08480D6F871
:10338000B42DD5F808E0D6F8B43D9A42F7D1E36DF4
:103390009E45F4D8D4F858A001FB0AF3A3EB0E0322
:1033A000B3FBFAF301FB02327B68C3F3080343BBB0
:1033B000EFF311832BBBD6F8B43DD5F808B0D6F89F
:1033C000B4ED7345F7D1D4F85CE0F345F3D8D4F805
:1033D00058A001FB0AFEAEEB0B0EBEFBFAFE01FB92
:1033E00003E39B1AB3F57A7FDED30138BCD109F130
:1033F000FF395FFA89F9B9F1FF0F7FF42CAFBDE80F
:10340000F88FEFF3118A88F31288D5F808B02B688B
:10341000DB0303D5C4F854C0D5F808B0D6F8B43DE2
:103420005FFA8AFAD4F854E08AF31188D4F858A0E5
:10343000734401FB0AFEAEEB0B0EBEFBFAFE01FB72
:1034400003E3CEE7EFF3118A88F31288D5F808B0CA
:103450002B68DB0303D5C4F854C0D5F808B0D6F800
:10346000B43D5FFA8AFAD4F854E08AF31188D4F8AC
:1034700058A0734401FB0AFEAEEB0B0EBEFBFAFE36
:1034800001FB03E348E7EFF3118E88F31288D5F8C8
:1034900008A02B68DA0303D5C4F854C0D5F808A0F7
:1034A000D6F8B43D5FFA8EFE626D8EF31188D4F8C3
:1034B00058E01A4401FB0EF3A3EB0A03B3FBFEF33F
:1034C00001FB023270E7EFF3118E88F31288D5F812
:1034D00008A02B68DA0303D5C4F854C0D5F808A0B7
:1034E000D6F8B43D5FFA8EFE626D8EF31188D4F883
:1034F00058E01A4401FB0EF3A3EB0A03B3FBFEF3FF
:1035000001FB0232E7E6236D002B3FF428AF0023D6
:10351000E26B136084F84D3021E7236D002B3FF4FC
:10352000B5AE3FF027FEB1E6684C0024782A0024AF
:1035300000ED00E010E000E02DE9F04FBF4C83B05B
:103540000523BF4E94F824104FF01009E06AC1F330
:103550004001019342F098FB94F82410A06AC943FB
:10356000DFF8E482B74D01F0010142F08DFBE36A20
:1035700033B11A689B8851690B4218BF1B049361D1
:10358000A36A33B11A689B8851690B4218BF1B04A8
:103590009361A38E002B40F04A8194F83610A06B03
:1035A00042F072FB32204FF47A710127D8F80430D0
:1035B000C3F30803002B40F01181EFF31183002BBC
:1035C00040F00C81D6F8B42DD5F808E0D6F8B43D1B
:1035D0009A42F7D1E36D9E45F4D8D4F858A001FB88
:1035E0000AF3A3EB0E03B3FBFAF301FB0232D8F8A4
:1035F0000430C3F30803002B40F0B180EFF31183D4
:10360000002B40F0AC80D6F8B43DD5F808B0D6F821
:10361000B4ED7345F7D1D4F85CE0F345F3D8D4F8B2
:1036200058A001FB0AFEAEEB0B0EBEFBFAFE01FB3F
:1036300003E39B1AB3F57A7FD9D30138B6D1E36A95
:1036400033B11A689B8851690B4218BF1B04936100
:10365000A36A33B11A689B8851690B4218BF1B04D7
:103660009361A38E002B40F0D88094F83610A06BA5
:1036700081F0010142F008FB32204FF47A710127FA
:10368000D8F80430C3F30803002B40F08880EFF330
:103690001183002B40F08380D6F8B42DD5F808E0D4
:1036A000D6F8B43D9A42F7D1E36D9E45F4D8D4F8EC
:1036B00058A001FB0AF3A3EB0E03B3FBFAF301FBE3
:1036C0000232D8F80430C3F3080343BBEFF311838D
:1036D0002BBBD6F8B43DD5F808B0D6F8B4ED734599
:1036E000F7D1D4F85CE0F345F3D8D4F858A001FB47
:1036F0000AFEAEEB0B0EBEFBFAFE01FB03E39B1AC8
:10370000B3F57A7FDDD30138BAD1019B5F1E17F084
:10371000FF0301937FF42BAF03B0BDE8F08FEFF30D
:10372000118A89F31288D5F808B02B68DB0302D51B
:103730006765D5F808B0D6F8B43D5FFA8AFAD4F8D0
:1037400054E08AF31188D4F858A0734401FB0AFEB0
:10375000AEEB0B0EBEFBFAFE01FB03E3CFE7EFF38C
:10376000118A89F31288D5F808B02B68DB0302D5DB
:103770006765D5F808B0D6F8B43D5FFA8AFAD4F890
:1037800054E08AF31188D4F858A0734401FB0AFE70
:10379000AEEB0B0EBEFBFAFE01FB03E349E7EFF3D2
:1037A000118E89F31288D5F808A02B68DA0302D5A8
:1037B0006765D5F808A0D6F8B43D5FFA8EFE626D55
:1037C0008EF31188D4F858E01A4401FB0EF3A3EBF2
:1037D0000A03B3FBFEF301FB023272E7EFF3118E33
:1037E00089F31288D5F808A02B68DA0302D567653B
:1037F000D5F808A0D6F8B43D5FFA8EFE626D8EF360
:103800001188D4F858E01A4401FB0EF3A3EB0A0325
:10381000B3FBFEF301FB0232E9E6236D002B3FF41C
:103820002BAF0023E26B136084F84D3024E7236D47
:10383000002B3FF4B7AE3FF09DFCB3E6684C00248C
:10384000782A002410E000E000ED00E010B4A8B1F8
:103850000C4C236E102B05D1052100205DF8044B84
:103860003BF04CBB03EB4302224482F8651001217C
:1038700082F864000B4482F8661023665DF8044BFE
:10388000704700BF684C002430B5044683B00D4635
:1038900008480DF107022146FFF786FC9DF8072036
:1038A00035EA020304D02A432146024843F0D0F807
:1038B00003B030BDFC4C00240378012B01D0002064
:1038C000704790F90420084902EB420201EB4212D2
:1038D00092F82D11202901D018467047D2F8EC300B
:1038E0009869C0F3C0307047684C00242DE9F0415E
:1038F0001F4C84B00746884694F894501646022D13
:1039000011D0012D0BD113460091024694F8991065
:1039100094F9980051F068FA04B0BDE8F0810020F5
:1039200004B0BDE8F081D4F8A0301BB19A881968C2
:1039300012048A6101230DF10F020DF10E01D4F87A
:1039400098008DF80E704DF0CFFC334642460021B2
:10395000D4F898004DF0C8FCD4F8A03033B11A6800
:1039600001209B88936104B0BDE8F0810120D3E77A
:10397000684C00242DE9F04F037885B004460E46CC
:10398000022B00F08E80012B04D00025284605B0C4
:10399000BDE8F08F90F904105C4F042987F8583285
:1039A000D4BF00250125B1F1FF3F08BF45F0010557
:1039B000002DEAD101EB4102480007EB4212D2F898
:1039C000ECC0BCF1000FE0D092F82DE1BEF1200F69
:1039D000DBD1DCF8188018F40048D6D192F82CC15D
:1039E000BCF1010FD1D04FF0400CDFF838E14FF0BF
:1039F000210BDFF8349194F805A0DEF8CCEC82F8C6
:103A00002DB182F82EC107F5167CC2F83081A2F8DC
:103A10001631C2F81891B2F8164182F82C31A3B2CF
:103A20003B4CC2F810C1FF2BC2F8204169D8B2F854
:103A300016C14FF000791FFA8CFC441835484FEA44
:103A40004A0ACDF800E000EB4410324607EB44147C
:103A5000514614301923A4F814C1FFF79DF900282A
:103A600045D1D4F8EC202C49536894F814610B40EC
:103A70002A4DD4F8201143EA0A03A94243EA064337
:103A800043EA0903536084F82C0104D0244B994283
:103A900018BF4FF0F2081368012543EA08031360CA
:103AA00074E7C3681BB19A88196812048A610125FA
:103AB0000DF10F020DF10E0160682B468DF80E60BE
:103AC0004DF012FC2B460DF10F020DF10E01606856
:103AD0008DF80E504DF008FCE368002B3FF456AF14
:103AE0001A6828469B88936105B0BDE8F08FB7F847
:103AF0005A320022013384F82C219BB2A7F85A32A3
:103B000044E74FF0FF0C4FF0807996E7684C0024B3
:103B1000914E0508404D0024009C00FC354C0508E2
:103B20004D4D0508703B00240000FFFF036870B591
:103B30005E6A26B133460522BDE870401847044648
:103B40000D464E1D00E023689B68204698470028DC
:103B5000F9D02368204615F8011B1B689847B54229
:103B6000F1D170BD2DE9F0470023194D84B007460F
:103B700095F9619205F51A764FF0B60A00EB010847
:103B800005F5A1651C46D6F800C0304600226946FE
:103B9000E036BCF1000F14D09CF838C0BCF1140F13
:103BA0000FD019F1020F01D0CC450AD1CDE9024462
:103BB000CDE90078ADF808A08DF80E4033F0B6FDE1
:103BC0000346B542DFD1184604B0BDE8F08700BF18
:103BD000684C0024F0B500230E680DE0BCF1050F21
:103BE00017D9BEF1050F18D80A2C16D103EB8303A1
:103BF00016F8010B04EB4303A0F13005A0F1610CB2
:103C0000A0F1410EA0F13704EFB2092FE6D82C46FF
:103C1000ECE7A0F157040A2CE8D00E601360F0BD69
:103C20002DE9F743A0230124114E18255FFA84F8EB
:103C3000FF2B14DCE9B2D6F808055F1CDBB2C1F13A
:103C40001C02C1F11B0180F80B808272C9B20268AC
:103C500000930023D2F818904246C8473B46013DE6
:103C6000E6D10134052CE0D103B0BDE8F08300BFFC
:103C7000684C002408B5FCF793FE38B104490548A8
:103C800042F03CFA034819F093FB024808BD00BF1C
:103C9000F0C30908745100242DE9F04F884C1646F2
:103CA0000B2287B094F89A87054694F8A5A7894611
:103CB0004046114602951D469DF840703AF026FF99
:103CC000C245834640F0B0800390404641F0BAFCC4
:103CD00017F008030246019300F09980BBF1000F32
:103CE00000F091809BF80710890700F18C80C4F8E0
:103CF00064B5C4F86005C4F85C05002800F0DC80F9
:103D000040F60B3105F0020AC1804FF48073DFF8F2
:103D1000C8810299584608EB030284F8245500250F
:103D2000C4F84C15C4F838253146664AC4F82C3519
:103D3000C4F82025C4F83035C4F8286584F8257502
:103D4000C4F85095C4F83485C4F84055C4F83C55BF
:103D5000C4F84855C4F84455C4F87C5784F88057D3
:103D6000A4F8745732F036FFD4F8640507F0010167
:103D7000FDF7B2F8544A554BD4F86405C4F8885797
:103D8000C4F88C27C4F88437BAF1000F1CD0D4F8DB
:103D90006C75CFB13A6803689A4215D00123314659
:103DA000384684F8813732F015FF08F50572294648
:103DB000D4F86C0552F0E8FE2A4608F50771D4F8ED
:103DC000640552F0E1FE07E0414A002302F10801D8
:103DD00084F8813752F0D8FED4F86435186853F06F
:103DE0009BF8019BC4F868052BB33A4832F01AFFE0
:103DF000384807B0BDE8F08F039BCDE9040113B14B
:103E0000D87983071FD5002007B0BDE8F08F15F0E3
:103E10000101F1D105F0020C5FFA8CFABAF1000F42
:103E20002CD1D4F864B570E70B220C2150463AF03F
:103E30006DFE039049E7274832F0E8FE012125484E
:103E400032F016FFD1E7504605F0020A41F0FAFBC6
:103E5000039AD4460599C4F86425049AC4F85C050D
:103E6000904202D1BAF1000F1CD10028D4D040F604
:103E70000C3EA0F806E0BAF1000FD2D0B8F1000F66
:103E8000C1D0C4F8602591B9BBF1000FBBD0C4F814
:103E900064B55FFA8CFA002A3FF437AF40F60B3175
