:020000040800F2
:100000000000022089120A080D130A08458007081B
:100010000D130A080D130A080D130A08000000004A
:100020000000000000000000000000000D130A089E
:100030000D130A08000000000D130A0809E508085E
:100040000D130A080D130A080D130A080D130A08E8
:100050000D130A080D130A08A9F40808BDF40808CE
:10006000B9F40808B5F40808B1F40808B1B70908EC
:10007000A1B7090891B7090881B709086DB7090840
:1000800059B7090845B709080D130A080D130A08DE
:100090000D130A080D130A080D130A08ADF4080819
:1000A0000D130A080D130A080D130A083DAE0908BE
:1000B0002DAE09081DAE09080DAE0908D9B709080B
:1000C000F9ED0908CDB70908F1ED09080D130A0883
:1000D0000D130A08819309087593090869930908A3
:1000E000A5F408080D130A0800000000DDAD09089A
:1000F00089AD090865AD0908EDAD090831B70908F2
:100100000D130A080D130A08FDAD09080D130A089E
:100110005D9309080D130A080D130A080D800908DC
:100120001DB7090809B70908F5B60908E1B60908B5
:10013000CDB609080D130A080D130A080D130A0895
:1001400000000000000000000000000000000000AF
:10015000B9B60908A5B6090891B609085193090866
:10016000C1B70908E9ED09080D130A080D130A08BB
:100170000D130A080D130A080D130A0800000000E9
:100180000D130A080D130A08459309083993090845
:100190000D130A080D130A080D130A080D130A0897
:1001A0000D130A080D130A080D130A080D130A0887
:1001B0000D130A080D130A080D130A080D130A0877
:1001C0000D130A080D130A080D130A080D130A0867
:1001D0000D130A08858209080D130A080D130A0871
:1001E0000D130A080D130A080D130A080D130A0847
:1001F0000D130A080D130A080D130A080D130A0837
:100200000D130A080D130A080D130A080D130A0826
:10021000CDAD0908BDAD0908ADAD09080D130A083B
:100220000D130A080D130A080D130A080000000038
:100230000D130A080D130A08000000000D130A0828
:100240000D130A080D130A080D130A080D130A08E6
:100250000D130A080D130A080D130A080D130A08D6
:100260000D130A080D130A080D130A080D130A08C6
:100270000D130A080D130A080D130A0800000000E8
:100280000D130A08000000000D130A08000000000A
:08029000000000000D130A0834
:08029800280D0A00010000001E
:1002A000B85101240208000005003F22D851012462
:1002B000020A000105035B5FF8510124020F0002EE
:1002C00006033D3E18520124011200000001760091
:1002D0003852012401130100000177005852012413
:1002E0000118000000017600785201240119000075
:1002F00000001E0098520124011F000000000D00A4
:10030000B85201240120000000000E00D852012440
:100310000121000000001E00F8520124011C000011
:1003200000000C0018530124011D000000000E0005
:1003300038530124011E000000000C005853012412
:10034000022200000002520078530124012B010018
:100350000001180098530124012300000001480007
:10036000B85301240124000000014900D85301249E
:100370000125000000014A00F85301240126000075
:1003800000014B00185401240127000000014C001B
:10039000385401240128000000014D005854012464
:1003A0000129000000014E0078540124012A0000B8
:1003B00000014F0098540124012E00000000140099
:1003C000B8540124012F000000002900D854012452
:1003D0000130010000002900F8540124013101001E
:1003E00000007000185501240132010000012800AE
:1003F00038550124022C010000012C00585501241D
:100400000135000000003C00785501240133000054
:100410000000400098550124013800000000200031
:0C042000B855012401390000000129003A
:020000040804EE
:1000000009284FF00103F0B407D903EB83035B0029
:10001000B0FBF3F2092AF8D84BB30026DFF858C03A
:10002000ACFB03720D46B0FBF3F4002C03FB140091
:100030004FEAD202D4BF0027012756B94FB9092B86
:100040003E4612D8303405F8014B00232B70F0BC2B
:100050007047092C06F10106CCBF57213021092B2E
:100060000C4405F8014B2946EFD91346D8E70D4655
:1000700000232B70F0BC7047CDCCCCCCF0B5002366
:100080000E680DE0BCF1050F17D9BEF1050F18D8A9
:100090000A2C16D103EB830316F8010B04EB430380
:1000A000A0F13005A0F1610CA0F1410EA0F13704E0
:1000B000EFB2092FE6D82C46ECE7A0F157040A2C42
:1000C000E8D00E601360F0BD2DE9F04F02238A46A0
:1000D0008B462DED108B93B0DFEDBB8A0E9303465C
:1000E000109004330F9211934FEADA06109DDDF859
:1000F00044C04FEACA0305EB46110D96F0004FF0DD
:10010000000E01EB061437010390A6EB8602009463
:10011000029706EB460804EBC202041D381D06EBED
:1001200086072C44C6EBC60901972844019D02EBC3
:1001300046174FEAC909ED0001EBC60601954FEAE3
:10014000081504954FEAC80505950D9D4FEA451819
:10015000009DD1ED006AD64495ED007A96ED003A07
:10016000F34597ED004A1CED015A50ED017A14ED6C
:10017000016A75EE262AD2ED005A35EE665A76EE01
:10018000033A77EE876A36EE436A77EEC77A35EE42
:10019000847A75EEC45A72EEA64A72EEE62A76EEBC
:1001A000656A33EE874AF0EE451AA6EEE85A34EE59
:1001B000843A74EEC44A36EE256A0CED013AB0EE8C
:1001C000672AC1ED004AE6EEA81AD7ED015AB0EE53
:1001D000453AD5ED010AA6EE282A96ED015AE6EE3B
:1001E000687AD4ED006A33EEC76A92ED014AD0ED29
:1001F000004A76EEC53A34EE658A91ED010A76EE54
:10020000856A9CED007A34EEE05A34EE254A33EEEE
:10021000881A77EE405A74EEA04AF0EE450A73EE63
:10022000C83AA1EE685AE1EE280A37EE007AB0EE3D
:10023000651AE3EEE85AA3EEA81A76EE843A76EE53
:10024000C46A37EE244A37EE647A32EEA60A74EEB8
:10025000234A72EEE66A34EE634A77EE462ACCED24
:10026000004A36EE077A9C4481ED014A71EEA03ACD
:1002700000ED010A33EE054AC5ED006A71EEE04A71
:10028000C0ED002A33EE455A85ED017A31EE426A1F
:1002900035EEE77A44ED013A72EE016AC7ED004AA5
:1002A00077EEA57A86ED004A194482ED005A1D4486
:1002B00084ED006A1844C7ED016A1C4486ED017A9A
:1002C0001F44C2ED017A1E441A443FF642AF0D9A14
:1002D000072A40F2A081039A08F10808109F09F14B
:1002E00008000832019E049D94463A460836059C53
:1002F00042440835083402990A9207EB0C020C318B
:100300004FF000080992BA1908927A1907923A191F
:1003100006923A1805927A18039207F10C02049299
:10032000012202920E9ADDF80CC090440F9A049FAD
:1003300002EBC802059EA8EB880E069D02EBC801E1
:1003400092ED00DA079C01EBC802D1ED00CA0898D3
:1003500002EBC80192ED00CA01EBC802D1ED00BA70
:1003600002EBC80192ED00BA01EBC802D1ED00AA80
:10037000099902EB0E1E92ED00AA0A9A0EEBC8092B
:10038000DEED019A0B9209EBC80299ED019A0C91EE
:1003900002EBC80992ED018ADDF808E009EBC8021A
:1003A00099ED010A02EBC809D2ED010AD9ED017AF3
:1003B00009EBC802CDED007AD2ED017ADDE90B211F
:1003C000CDED017A02E000BFF304353FD0ED003AF5
:1003D000D64492ED007AD4ED007AF34595ED006AAB
:1003E000D6ED006A57ED014A1CED015A91ED004A25
:1003F00034EE872A74EEC74A97ED00FA35EE277A75
:1004000074EE232A35EE675A76EE267A72EE07EA04
:1004100036EE666A32EEA73A34EE634A32EE472A87
:100420007EEE836A34EE067AB0EE45EA47ED016A65
:1004300034EE464AD0ED016AA7EE685A91ED016AA2
:10044000A7EE28EAD6ED013AF0EE64DA95ED017AEE
:1004500076EE66FA92ED011A76EE266A37EE636A58
:100460007FEE415AE4EE28DA72EEE72ADCED007AFC
:10047000E4EE684A94ED014A37EE237A77EEC41A27
:100480007FEEC63A77EE847A3FEE866AB0EE654A32
:10049000E3EEE85A3FEE01FAA3EEA84AF0EE613A25
:1004A000E6EE681A36EE871AE6EE283A36EEC77A96
:1004B0003EEEC33A74EE4EEAB0EE616A7FEE271A62
:1004C0007FEE677A72EE076A31EEC1FA32EE477A52
:1004D00037EEE22A72EEA77A7DEEA32A7DEEE33AAA
:1004E00075EEC5DA35EE255A60EE0F5A63EE40FA26
:1004F0003EEE044AEBEE835A34EE86EA74EEC64AC8
:1005000026EEC96AEBEE8FFA9DED00FA71EE811AC4
:10051000B0EE653A69EE025AACEE826A9DED002AB1
:100520002FEE27FAC7ED001AECEEA65A82ED003A3C
:1005300027EE422AC2ED01FA69EEAE6A1F44AAEE26
:1005400087FA1A4422EEE97A8CED006AAAEEA72A0D
:10055000DDED017AEDEE226ADDED012AADEE2E7AB7
:100560004CED015A67EE847A9C4463EEE22A84EDF6
:1005700000FA6EEE60EAEAEE237A84ED012AEAEEF2
:10058000042AC1ED006AEBEE2DEA81ED017A60EEFE
:10059000AD3A1C4428EE054A194464EEC8DAEBEE85
:1005A0000E3AC6ED007AACEE244AC6ED012AECEE16
:1005B00005DA1E44C0ED003AC0ED01EA184485EDAD
:1005C000004AC5ED01DA1D443FF600AF0A99029AD0
:1005D000083101320A91099902920831099108996A
:1005E0000831089107990831079106990831069159
:1005F000059908310591049908310491039908314E
:1006000003910D9991427FF48DAE0E9B8A46DB00DB
:100610009BB20E9368E513B0BDEC108BBDE8F08F74
:1006200000B5034683B03221074A68468DF80010B2
:1006300019689B881268CDF80110ADF80530904715
:1006400003B05DF804FB00BFA8270024204B2DE970
:10065000F041002406465D6800F1070806E03946CF
:100660001B6898473C444645A4B214D016F8017B59
:1006700028467D21A7F17D03012B2B68EFD81B684D
:1006800098472B6887F0200128461B689847E9E7C0
:10069000E3B203EB1424FF2CFAD8C4F1FF04E4B254
:1006A000A4F17D03012B2B6805D9214628461B6840
:1006B000BDE8F041184728467D211B6898472B6804
:1006C00084F0200128461B68BDE8F041184700BFB0
:1006D000A82700240A4AD369F0B41C680027566989
:1006E0004FF6F6751981611C9F81C3E900162070D1
:1006F000D36951691A689D81C3E90012F0BC704743
:10070000A8270024084B542230B403F121052424E7
:1007100003F13201056083F8204003684160591CF1
:1007200001601A7030BC7047A8270024F8B5CE1EAF
:100730000F464FF6FF730239421E0446064412F874
:10074000015F5B1BB2429BB2F9D14354C5191B0A2E
:10075000054E05F8013C14F8011B706B4DF068FF65
:10076000A542F8D1F8B2F8BDA827002470B50B4611
:1007700082B0082460F05F021E14ADF8023000253C
:100780001B0E214668468DF801208DF804608DF817
:1007900005308DF80040ADF80650FFF7C7FF02B0F6
:1007A00070BD00BF062260F05F0330B583B00D4618
:1007B000002411466846ADF802508DF801308DF8DE
:1007C0000020ADF80440FFF7B1FF03B030BD00BF1B
:1007D000024A034B916B0B4393637047A827002495
:1007E00000FC8600264A274BD16B0B40002B0CBF28
:1007F000012002204B07136C48BF0430D90701D5F4
:100800000A3080B29A0701D5143080B2D90501D5DB
:10081000283080B25A0701D5643080B2190701D55B
:10082000C83080B29A0602D500F5C87080B2D906E9
:1008300002D500F57A7080B2DA040ED500F5FA50D0
:1008400080B2990403D542F21072024490B29A0524
:1008500009D50D4B034498B2704719050AD500F528
:10086000FA6080B2EDE75B0503D544F620630344EC
:1008700098B270475A06E4D500F57A6080B2E0E796
:10088000A827002480FFFF3F409CFFFF38B50F4C96
:10089000034694F84B1004F1440084F8473001F00B
:1008A0003F0101F10A058B1C083184F846502544AC
:1008B00084F849302CF08CFC85F8420094F84630DE
:1008C000000A1C4484F8430038BD00BFA827002458
:1008D000022805D0A0F10100B0FA80F0400970476D
:1008E000054B93F874201AB9D86BC0F38000704799
:1008F000102036F05BBE00BFA827002430B5404C66
:1009000085B094F8AC30012B01D005B030BD94F81F
:10091000AD00022826D0A0F10100B0FA80F0400915
:1009200040B36368002BF0D1D4F8B020002AECD09B
:1009300094F87C00032594F87510002892F90400BF
:1009400001954FF4614214BF0825002500921A4614
:10095000002908BF45F00105202102952FF08CFBEE
:100960006060D2E794F8743073BBE06BC0F3800032
:100970000028D6D16268002AC7D0D4F8B830934294
:1009800027D0D4F8C4309A422CD0D4F8D0309A4230
:100990002AD0D4F8DC309A4228D0D4F8E8309A42F1
:1009A00016D0D4F8F4309A4222D0D4F800319A42CA
:1009B00020D0D4F80C319A421ED0D4F818319A4283
:1009C0001CD000236360A0E7102036F0EFFDA7E7FE
:1009D000042000EB4000002104EB8003D162C3E956
:1009E0002E11EEE70120F4E70220F2E70320F0E702
:1009F0000520EEE70620ECE70720EAE70820E8E715
:100A0000A827002470B51C4D632200211B4E95F8C9
:100A1000280156F0CBFCB5F84C3104460922333B93
:100A2000002186FB0360DB17C3EB201056F0BEFCF1
:100A30006421D5F85821C0F1090301FB0340910757
:100A400084B202D504F57A74A4B2D20702D504F5B3
:100A5000FA64A4B2EB6B5B0701D4204670BD15208D
:100A600036F0A4FD0028F8D02B6C13F4016FF4D1FC
:100A700004F57A64A4B2F0E7A82700241F85EB519F
:100A800070B40D4E05460468002206F123039C4213
:100A900005D913F8011BA34282EA0102F9D1631CB4
:100AA00006492B6022702A68D6F85C016A60521AE7
:100AB000296070BC4DF09ABDA8270024C8270024E7
:100AC000154BDB68C3F3022310B4C3F107041A1DEE
:100AD000042C28BF0424062A4FF0FF328CBF033BAE
:100AE0000023A240002821EA020101FA03F108DBF9
:100AF00009010A4BC9B2034483F800135DF8044BA3
:100B0000704700F00F000901054BC9B20344197684
:100B10005DF8044B704700BF00ED00E000E100E02D
:100B2000FCEC00E0F0B401282D4F2E494CF2503679
:100B30002D4C08BF0421D7F86051042911D0D4F8F6
:100B4000102121EA020212F0040F0CBF012300233E
:100B500063B1D7F860315B1BB342EED90320F0BC20
:100B600070472369C3F38003002BF2D1012810D012
:100B70001D491E48D1F81021024223D1D1F810217D
:100B8000D20313D54FF480321846F0BCC1F81421BB
:100B90007047154A154C116921420AD11169C903E0
:100BA00004D54FF4803118465161D8E71846F0BC9F
:100BB00070470F4CD7F87C3121400B43C7F87C318C
:100BC0005161CCE70A4C0120D7F87C312240134315
:100BD00043F00043C7F87C31C1F81421F0BC7047E2
:100BE000A827002404000080002000520000EE1519
:100BF0000000EE1730B41E4D046804E0D5F8602103
:100C0000521A0A2A27D8A36913F02003F6D010221B
:100C10002023E261E361A3699A0701D50023A3625F
:100C2000A369DB0712D563680022124D20212B40F7
:100C30006360436C80F8402043F00403436480F811
:100C4000411080F84220012030BC7047A36943F076
:100C50000103A361E7E7426C202180F840300A439A
:100C6000426480F8411080F84230012030BC704767
:100C7000A827002400E800FE70B5134E04460D4678
:100C80000AE09B69DB0602D5FFF7B4FFC8B9D6F8C6
:100C900060315B1B0A2B07D82368294620469A69D6
:100CA0009207EED5002070BD636C20210022012048
:100CB0000B4384F84020636484F8411084F8422098
:100CC00070BD012070BD00BFA827002470B5134E71
:100CD00004460D460AE09B69DB0602D5FFF78AFF52
:100CE000C8B9D6F860315B1B0A2B07D823682946A0
:100CF00020469A699206EED5002070BD636C2021D3
:100D0000002201200B4384F84020636484F84110E2
:100D100084F8422070BD012070BD00BFA8270024C8
:100D2000F8B5044690F88000012800F0AB80B94E79
:100D300001272068D6F860C194F8815084F880704B
:100D4000012D5FFA85FE67680BD0B7F5800F40F084
:100D50008F80A568002D40F08B80BEF1040F40F01D
:100D60008780002B18BF002A00F08780002900F040
:100D7000848094F88150042D02D0052584F8815098
:100D80004FF0000E6266A44DB7F5800FC4F884E002
:100D9000A4F86A30A4F862304268A4F8683005EA22
:100DA0000205E165A4F8603045EA0305C4E91CEEDC
:100DB0004560026842F00102026003D1026842F419
:100DC00000720260E2680F2A60D91A4648F20807EA
:100DD000416989070ED56BB1E16D51F8043B03629F
:100DE000B4F86230E165013B9BB2A4F86230B4F81C
:100DF00062309BB2416943EA02053942ADB211D07B
:100E0000002A41D0056BB4F86A20616E013A41F8BE
:100E1000045B92B26166A4F86A20B4F86A2092B2C8
:100E200042EA0305002DD3D1D6F86031A3EB0C03C1
:100E3000092B70D843691B070BD4D6F86031A3EB9C
:100E40000C03092BF6D9D4F8843043F02003C4F8FE
:100E5000843020465AF0BCFF0122002384F8812010
:100E6000D4F8840084F88030C01A18BF0120F8BD7F
:100E70000023022084F88030F8BD0023012084F88C
:100E80008030F8BD0220F8BD1D46CBE7072A52D8B6
:100E9000024619465569AD0715D5A3B1032B40F29B
:100EA000CC80E36B402B40F2DD80E56D55F8043BD0
:100EB0001362B4F86230E565043B9BB2A4F862307B
:100EC000B4F862309BB2556915F4604F12D089B105
:100ED0005169090440F18980156BB4F86A20616E8C
:100EE000043A41F8045B92B26166A4F86A20B4F84F
:100EF0006A1089B2D6F86021A2EB0C02092A54D8F4
:100F000043EA010292B2002A00F0C78022685569C4
:100F1000AD07D8D5C1E720465AF05AFFD4F884303F
:100F2000012284F8805043F480731046C4F8843062
:100F300084F88120F8BD19464269920713D593B110
:100F4000012B43D9E36B002B40D0E26D52F8043BF8
:100F50000362B4F86230E265023B9BB2A4F86230EF
:100F6000B4F862309BB2426912F4604F11D081B183
:100F70004269170452D5056BB4F86A20616E023AD3
:100F800041F8045B92B26166A4F86A20B4F86A1072
:100F900089B2D6F86021A2EB0C02092A05D843EAEF
:100FA000010292B2002AC7D144E720465AF010FF4E
:100FB000D4F884300122002143F48073104684F871
:100FC0008010C4F8843084F88120F8BDE26D32F8D6
:100FD000023B0384B4F86230E265013B9BB2A4F8A3
:100FE0006230B4F862309BB2BDE7516901F4C04190
:100FF000B1F5005F47D9028E616E21F8022BB4F87B
:101000006A206166023A92B2A4F86A20B4F86A10C3
:1010100089B26FE7A82700240000FFFF028E616EEF
:1010200021F8022BB4F86A206166013A92B2A4F862
:101030006A20B4F86A1089B2ABE7012B11D1E36DD5
:101040001B7882F82030B4F86230E56D013B2268ED
:1010500001359BB2E565A4F86230B4F862309BB20A
:1010600031E7E36B002BEAD0E56D35F8023B0384F2
:10107000B4F86230E565023B9BB2A4F86230B4F884
:1010800062309BB21FE792F83010626E1170B4F8B4
:101090006A20616E013A013125E72068CAE600BF87
:1010A00070B4204D06460468E36931EA030323D097
:1010B000D5F860319B1AB3F1007F23681FD258071F
:1010C000F2D5E3691B05EFD54FF400622023002120
:1010D00003202262226822F4D0722260A26822F0E9
:1010E0000102A260C6F8803086F87C10C6F8843011
:1010F000C6F8883070BC7047002070BC704723F47D
:10110000D0732022002103202360A36823F0010371
:10111000A360C6F8802086F87C10C6F8842070BCD6
:10112000704700BFA8270024014B5860704700BFDC
:10113000504000584309012200F01F00023B02FA10
:1011400000F0092B0CD8DFE803F0050B131A212857
:101150002F363D0C1F4BD3F8F0201043C3F8F0009E
:1011600070471C4BD3F8F4201043C3F8F4007047C9
:10117000184BD3F8D8201043C3F8D8007047154B4C
:10118000D3F8DC201043C3F8DC007047114BD3F8D0
:10119000E8201043C3F8E80070470E4BD3F8EC206A
:1011A0001043C3F8EC0070470A4BD3F8D420104327
:1011B000C3F8D4007047074BD3F8E4201043C3F8BA
:1011C000E4007047034BD3F8E0201043C3F8E0007D
:1011D000704700BF0044025807EE900A9FED477A1F
:1011E000B1F5C87F9FED466AF8EE677ADFED455AA4
:1011F000CBBF78224FF4967232236423C7EE273A8E
:1012000007EE901A13449FED405AA2F1320004EE0B
:10121000900AB8EEE77A07EE903AF0EE086AB8EE78
:10122000E74AC6EE077AF8EEE44AB7EE006AF1EE56
:10123000032AA3EEA55AE3EEE64AB6EE003A30B42E
:10124000B0EE457A82B00124A3EEA67A37EEC75AF3
:1012500035EE475A2146013407EE904AB8EEE77A58
:1012600027EE237AC5EE077AC4EE076AC4EE875AE2
:1012700077EEC67A87EEA27A76EEC66A77EE837A42
:10128000FCEEE55AFCEEE66AFCEEE77ACDED015A9B
:10129000CDED006A9DF8042017EE905A9DF80030BD
:1012A0000F2A98BF0F2BBCEEC77A94BF01220022F1
:1012B00017EE103A581EEB1A80B2013BFF288CBF84
:1012C000002202F001029BB20AB1FF2B05D90F2CBC
:1012D000C0D1002002B030BC704743EA017316EE63
:1012E000902A43EA002015EE903A12051B0402F002
:1012F0007F6203F47F0310431843EBE7286B6E4EC5
:10130000002474490000000000002A4303681B68A1
:1013100010B50446987910B9D87968B910BD032181
:10132000FFF7CEFB23681B6898795DF069FD2368A1
:101330001B68D8790028F1D00321FFF7C1FB23688F
:101340001B68BDE81040D8795DF05ABD2DE9F04723
:10135000041E0D4612DB092C26DC0B46814A82480E
:101360000021A0FB04605970C00800EB8000A4EBD2
:101370004000125C28461A70BDE8F08764422D23B5
:10138000092C01F8013B24D8764A774B0020A3FBB7
:10139000046348702846DB0803EB8303A4EB430394
:1013A000D35C0B70BDE8F0876F4B632CA3FB042666
:1013B0004FEAD60621DC0B466A4A6B49A1FB0601BF
:1013C000C90801EB8101A6EB4101515C03F8011B47
:1013D000C5E7654A632CA2FB04364FEAD60637D828
:1013E000604A614BA3FB0603DB0803EB8303A6EB18
:1013F0004303D35C01F8013BC7E7A3FB0627B4F521
:101400007A7F4FEAD7070DD20B46564A5649A1FBC1
:101410000701C90801EB8101A7EB4101515C03F809
:10142000011BCAE7A3FB072842F20F7294424FEA5E
:10143000D80836D80B464B4A4B49A1FB0801C908CE
:1014400001EB8101A8EB4101515C03F8011BDDE7D1
:10145000A2FB0637B4F57A7F4FEAD7070CD2414A90
:10146000414BA3FB0703DB0803EB8303A7EB430319
:10147000D35C01F8013BB4E7A2FB073942F20F73DA
:101480009C424FEAD90921D8364A374BA3FB0903BE
:10149000DB0803EB8303A9EB4303D35C01F8013BB7
:1014A000DEE7A3FB0829314A94424FEAD90921D843
:1014B0000B462C4A2C49A1FB0901C90801EB81010B
:1014C000A9EB4101515C03F8011BB5E7A2FB093A06
:1014D000264B9C424FEADA0A21D8224A224BA3FB30
:1014E0000A03DB0803EB8303AAEB4303D35C01F895
:1014F000013BCAE7A3FB09231D4A94424FEAD30AE2
:1015000021D80B461849174AA1FB0A01C90801EB6B
:101510008101AAEB4101515C03F8011BCAE7A2FB60
:101520000A38134B9C424FEAD80813D80E4B0D4A89
:10153000A3FB0803DB0803EB8303A8EB4303D35CA3
:1015400001F8013BCAE70A22BAFBF2F054F036FC7C
:101550000346D7E70A22B8FBF2F054F02FFC01460D
:10156000E4E700BF1CFE0A08CDCCCCCC9F8601006E
:101570003F420F002DE9F0471D4688B0531C0F462F
:1015800003931178002900F0D28000240646A0467B
:101590000BE0701C01D03046B8470134039A531C4D
:1015A00003931178002900F0C3802529F1D1931C01
:1015B000CDE9033850782D2800F0AF804FF0000AB5
:1015C000302800F09180A0F130034FF00009DBB229
:1015D000092B40F296806C2835D0782800F2F480F0
:1015E000572827D9A0F15803202B00F2ED80DFE81F
:1015F00013F00501EB00EB00EB00EB00EB00EB0060
:10160000EB00EB00EB00EB00DD00ED00EB00C400B5
:10161000EB00EB00EB00EB00EB00EB00EB00E60077
:10162000EB00EB00EB00EB00B600EB00A300EB00DF
:10163000EB00050100287BD0252840F0C580731CF5
:10164000ABD02521A7E7039B5A1C03921978782970
:10165000A5D8572967D9A1F15803202B9FD801A0FD
:1016600050F823F0D91704089F1504089F150408A3
:101670009F1504089F1504089F1504089F1504086A
:101680009F1504089F1504089F1504089F1504085A
:10169000AD170408F11704089F1504087B17040808
:1016A0009F1504089F1504089F1504089F1504083A
:1016B0009F1504089F1504089F150408C117040806
:1016C0009F1504089F1504089F1504089F1504081A
:1016D0005F1704089F150408391704089F150408AC
:1016E0009F150408D9170408039B4FF0010903EB69
:1016F000090203921878A0F13003DBB2092B3FF600
:101700006AAF04AA03A9FEF7B9FCBAF1000F3FF4CF
:1017100062AF049B5B4204935DE7D31C4FF0010A68
:10172000039390784CE719B1252988D037E70C4608
:10173000204608B0BDE8F08705A955F8040BFEF770
:101740005FFC05AB3A464FF0FF3130460193CDF8D0
:101750000090049B54F0D2FE039A04441FE755F80E
:1017600004CB3A46049B4FF0FF313046CDE9008C64
:1017700054F0C4FE039A044411E7073525F0070529
:10178000F5E802015FF042FA00EE100A05A854F0F5
:10179000A3FA05AB3A464FF0FF313046CDE900934E
:1017A000049B54F0ABFE039A0444F8E6721C3FF429
:1017B000F4AE55F8041B3046C9B2B847EDE6039ABB
:1017C00055F8043B1C60EAE6039AE8E605A955F8DB
:1017D000040B54F00BFBB4E7A1F1580205AB102148
:1017E00055F8040BB2FA82F2520954F045FBA8E70F
:1017F00005A955F8040B54F0F9FAA2E7A0F1580234
:1018000005AB102155F8040BB2FA82F2520954F0DC
:1018100033FB96E72DE9F04F07464068DFF8E88292
:101820009246D0F810C083B0D7F80CB08946CCF3FC
:101830000322DBF8043058F8225015F5803F00F001
:10184000D48008EB05029D4992F82060591A9A59F4
:1018500018BF01212C1E22F0010218BF01249A5149
:10186000002940F08C80002C40F08980944E954CEB
:10187000002221212C4432607260A400B260F26028
:10188000326122467161116821F0FF011160002D63
:1018900040F092803F229A605FFA8CF24379019285
:1018A000032B00F26681DFE803F0676461020668DB
:1018B00040365846454459F0C3FE0A23ABF81C3065
:1018C000D7F80CB0584659F0BBFE7F4B0321BBF94B
:1018D0001400CBF80C30CBF81870FFF7F1F8BBF917
:1018E00014005DF08DFAFB6895F820105B68774D69
:1018F0005A585818DFF8C4E11540754A734542EA52
:101900000502744D18BF20345A50D0F814C0019A03
:101910004CF0070CC0F814C053F801C02CF0C07C88
:1019200043F801C053F801C02CF4C00C43F801C0C7
:10193000C0F80C90866041680D40796845EA0A0558
:101940004560236823F0FF031A4322608B793A68CD
:1019500013F0040F4B795068984498F828103ED043
:101960005AF022F9012003B0BDE8F08F06683C363A
:101970009FE7066838369CE70668343699E7564A8A
:101980009A1A18BF0122002C37D1002A35D1534EA4
:101990004C4C002221212C4432607260A400B260C1
:1019A000F260326104F120027161116821F0FF01DF
:1019B0001160002D3FF46EAF012D47D0022D23D0D2
:1019C000032D4BD0042D5CD0052D52D0062D5BD0BD
:1019D000072D7FF461AF4FF07462DA605CE75AF074
:1019E0008BF9012003B0BDE8F08F344A93421ED03A
:1019F000394A93420CD03A4C4EE76C1E18BF012472
:101A000041BB3CBB374E32E74FF47C129A6043E750
:101A1000354B334CD3F8802042F00202C3F88020CB
:101A2000D3F8802022F00202C3F8802034E72E4B46
:101A30002B4CD3F8802042F00102C3F88020D3F869
:101A4000802022F00102C3F8802025E74FF4746261
:101A50009A6021E732B92CB9244E99E74FF07462AD
:101A60009A6019E7AC1E18BF012431B92CB9204E79
:101A7000FDE64FF47462DA600EE74AB944B91D4ED0
:101A800086E73F22DA6007E74FF47C12DA6003E76B
:101A9000EC1E18BF012411B90CB9174EE7E612B9B4
:101AA0000CB9164E74E72C1F18BF012411B90CB9DC
:101AB000134EDCE652BB4CBB124E69E700000240FD
:101AC0001000024000820010919409081F80FCFF62
:101AD000405402000000FFFF0004024010040240D6
:101AE0000008FE3F2800024000440258280402403B
:101AF00040000240400402405800024058040240A6
:101B00007000024070040240D0720A086C1F18BFB7
:101B1000012411B90CB9184EA9E612B90CB9174E27
:101B200036E7AC1F18BF012411B90CB9144E9EE65C
:101B300012B90CB9134E2BE7134A934203D1072D68
:101B400001D1124E93E6124C00210F4E4FF0210EA0
:101B50002C44104AB3424FEA8404116051609160F2
:101B6000D1601161C2F814E014BF04F120022246D2
:101B700089E600269DE600BF8800024088040240F6
:101B8000A0000240A004024000000240B800024051
:101B900000820010B80402400F49D1F8383410B563
:101BA000B3B191F89041D3F8042244B1002440230A
:101BB000D1F8500401215CF01DFC204610BD4FF40B
:101BC0000073D1F8500401215CF014FC204610BDD4
:101BD0000224204610BD00BFA8270024037870B45B
:101BE0002BB30246C0F10105531912F8014FDBB2C5
:101BF000002CF9D101335B000E4C03220B8084F8DA
:101C0000543484F85524017879B1022300265A1CF3
:101C1000E518023354FA82F285F85414DBB282F8E4
:101C2000546410F8011F0029F1D170BC70470223E1
:101C3000E2E700BFA827002410B50446802156F033
:101C400087FA00212046BDE8104056F081BA00BF57
:101C50000023034A036042608360C360704700BF93
:101C600083F9223E10B405490024054A054B04605F
:101C700041605DF8044B8260C36070475B128B3A31
:101C80006F12033B8943273F804BB3FBF2F399422A
:101C90000DD300234FF07E52436002608360C36027
:101CA00003610023836143610362C361704707EEF0
:101CB000902A9FED777AF8EE676A07EE901AF8EEB1
:101CC000677A66EE876A66EEA76AFDEEE67A17EE39
:101CD000903A2033402B00F2CA80DFED6E7AF4EEAA
:101CE000E76AF0EE667AF1EE10FA0CDDDFED6A5A83
:101CF0009FED6A6AB0EE677A77EEE57AB4EEC67A5F
:101D0000F1EE10FAF6DC9FED667AF4EEC77AF1EEAA
:101D100010FA0CD5DFED605A9FED626AB0EE677A7B
:101D200077EEA57AB4EEC67AF1EE10FAF6D49FED0E
:101D30005E7AF4EEC77AF1EE10FA00F390809FED30
:101D40005B7AF4EEC77AF1EE10FA03D59FED547A80
:101D500077EE677A27EEA76ADFED555ADFED554A31
:101D6000B6EE007A9FED545AE6EE254ADFED535A5F
:101D700027EE864AA6EE245AE6EE055AE4EE257AC8
:101D800027EE877A9FED486A76EE867AFDEEE75A6F
:101D900015EE903A2033402B66D8F4EEC66AF1EE89
:101DA00010FA0CDDDFED3C5A9FED3C6AF0EE676AFD
:101DB00077EEE57AF4EEC66AF1EE10FAF6DCDFEDC6
:101DC000386AF4EEE67AF1EE10FA0CD5DFED325A0D
:101DD0009FED346AF0EE676A77EEA57AF4EEC66A94
:101DE000F1EE10FAF6D4DFED306AF4EEE67AF1EEB9
:101DF00010FA3FDDDFED276A76EEE77A67EEA76A35
:101E00009FED2B6A9FED2B5AF8EE004ADFED2A5A20
:101E1000A6EE865A9FED296A27EEA64AE6EE855A77
:101E2000A6EEA56AE4EE067A67EEA47AC7EE006A2B
:101E3000B7EE006A76EE865A76EE666A86EE257A08
:101E400067EE277A80ED007A66EE876A80ED027A87
:101E5000C0ED017AC0ED037AC0ED046A21E79FED81
:101E60000D7A77EE677A75E7DFED157ADEE79FED9D
:101E7000147A87E7DFED0D6AF4EEE67AF1EE10FAF8
:101E8000BCD5DFED076A76EEE77AB7E720A1070059
:101E900027D4D236DB0F4940DB0FC940E4CB1641D3
:101EA000DB0F49C0E4CB16C1DB0FC93FDB0FC9BF55
:101EB0009A7C2E36FAAF4FB93587083CA4AA2ABEC1
:101EC000000000006428034BB8BF6420C3F8FC0383
:101ED000704700BF00000024034B64281B68B8BF94
:101EE0006420D860704700BF000000202DE9F04753
:101EF00090B00E460746914601A83C2200219A4622
:101F00001A9DDDE9184865F039F82E4B8DF804600C
:101F1000CDF834800293002E4FD0B31E012B4ED942
:101F2000042E14BF00220322DFF89C8001238DF8C9
:101F30000520D8F89425039414448DF83130CDE968
:101F400005570494B9F1000F2CD198F89A35002266
:101F5000012B0E921BD898F899C5013301ACCCEB3C
:101F60000C1588F89A35BCFA8CFC08EB85054FEA0D
:101F70005C1C05F29C550FCC0FC50FCC0FC50FCCC8
:101F80000FC594E8070085E8070088F899C53B6805
:101F900083B153464A463146384610B0BDE8F04753
:101FA0002BF08CBF5246494607A864F0A3FD8DF87C
:101FB00030A0CAE710B0BDE8F0870522B4E70222DE
:101FC000B2E700BFFC2C0024A8270024F0B4224C68
:101FD00094F86C5935B90023036043608360284648
:101FE000F0BC70470B6804F5C366D4F87479012A15
:101FF000D6EDD67AA3EB0703D4F878699FED176A7C
:1020000007EE103A4B6867EE866AA3EB0603B8EE5C
:10201000C77A07EE903A27EE067AF8EEE77A80ED77
:10202000007A67EEA67AC0ED017A0CD0D4F87C294C
:102030008B689B1A07EE903AF8EEE77AC0ED027AC9
:102040002846F0BC7047D1ED027AF8EEE77AC0ED91
:10205000027A2846F0BC7047A82700242C7D8E3FCA
:1020600070B51F4E04460D4696F86C392DED028B67
:102070007BB3D6F8742906F5C363D6F8781993EDC7
:10208000D68A0260D6F87C29C0E90112DFED158AF4
:1020900095ED000A80EE280A61F09CFC236895ED1E
:1020A000010A184428EE288A206080EE080A61F0B0
:1020B00091FC636895ED020A1844606061F08AFC47
:1020C000A368024696F86C091344BDEC028BA3602A
:1020D00070BDB7EE008A8360C0E90033D6E700BF69
:1020E000A82700242C7D8E3F00230360704700BF8B
:1020F00070B5044690F91000134D134600EB8000B4
:10210000A26882B00E4605EB80009207D0F898577F
:102110000AD532462846002159F0C6FEA3689B071F
:102120000BD5012002B070BD606901934CF026FB15
:1021300008204CF0D1F9019BEBE720464DF0F8FA6E
:10214000012002B070BD00BF00000024194B122016
:10215000194A1A49F0B4002503F57F64C3F8D82F53
:1021600041F20807164A41F20C0683F8B45F41F2C7
:102170000405C3F8E44F03F5805483F8B80F41F227
:102180001000C3F8D41F03F6B8715A51002522601D
:1021900042F6F824DA519A511A500120C3F8F02F70
:1021A000C3F8F42FC3F8F82FC3F8FC2FC1E9024598
:1021B000F0BC7047A82700241D65060811650608B5
:1021C000E003E003074B4FF478710748D3F8E42F9E
:1021D000C3F8D40F931E223223F8021F9342FBD17F
:1021E000704700BFA8270024CD60060824491122AB
:1021F000244B2548F0B501F6B87441F60B260027AC
:1022000081F8B82FC1F8D43F4FF478724FF4787347
:102210004FF4787585B0C1F8D80F4020C4E9026743
:102220001A4C44E9382344E9362344E9342344E989
:10223000322344E9302344E92E2344E92C2344E9A2
:102240002A2344F8A05C2EF037F9B8B114F8952C85
:102250000023032190F90400012A0D4A01914FF057
:1022600040010CBF08251D4600920295094A2DF039
:1022700003FF44F87C0C003818BF012005B0F0BD06
:10228000A82700245D6B0608556C0608A0380024BA
:10229000A0680600C17906080D4B70B40D4CA3422E
:1022A00003D311E00C33A3420ED25A798242F9D102
:1022B000DA798A42F6D11A681E791579AE42F1D1DF
:1022C00015689D42EED100E00022104670BC7047B8
:1022D000A00200082C04000864281C4B28BF6420BE
:1022E00000EB800070B54600A3FB06235D095B0987
:1022F00022D0002401349F204DF034FCE3B29D42F3
:10230000F8D80A2D00D170BD1148C5EB85136C1C9F
:10231000A0FB0620C5EB8303000966381844C0B251
:102320004DF020FC092DEED001349A204DF01AFC1E
:10233000E4B20A2CF8D170BD05480124A0FB063098
:1023400000096638C0B24DF00DFCEDE71F85EB517A
:10235000CDCCCCCC2DE9F041DFF88480002748F8C3
:10236000787C002837D04FF00071044659F09EF871
:10237000054680B359F0F6F8064660B340F6C4133C
:10238000A8F17402204628F8183C48F8782C4CF044
:102390004BFA2A7A02214CF01FFA104A38F8184CEE
:1023A000304658F8785CB2FBF4F42E60A1B25AF0D3
:1023B0008DFCC4F34F01286858F0C0FE286859F01E
:1023C000DDFC2B681B68586859F0E6FC286858F05B
:1023D0009FFEA8600760BDE8F08100BF40420F008B
:1023E000A0380024F0B41A4F17F8144C082C2DD83C
:1023F0000C22631C02FB0474DBB20C3C54F8042C6A
:10240000D1070DD502420BD094F90060002211498A
:1024100091F900500C31B5420DD00132092AF7D1A3
:1024200001330C34DBB20A2BE8D10923002007F872
:10243000143CF0BC704702EB4202074907F8143C19
:1024400001EB8202F0BCD2F8B80070470020F0E740
:10245000A03800245C280024A827002401448842D6
:1024600019D030B4441E4D1E002041F2210114F851
:10247000012F082380EA022010F4004F4FEA4002A7
:1024800081EA40000CBF90B280B2013BF4D1AC4273
:10249000EDD130BC70470020704700BF10B52DED66
:1024A000088B70EE60BA90ED01AA0378F0EE408AD6
:1024B000F0EE419A04462BEE8AAAB0EE618AB0EEA5
:1024C00042BAF0EE62AA002B42D1D0ED0C7A77EE40
:1024D000E07A94ED0A7A87EEA90AC4ED0C0AB5EE0B
:1024E000C07AF1EE10FA38DCD4ED032A60EE227ADD
:1024F00094ED050A67EEAA2A94ED0B7A68EE808ABD
:1025000078EE877A77EE8A7A77EEA27AF4EEC87A56
:10251000F1EE10FA2ED487FECB0A70EE677A94EDB6
:10252000046AD4ED026A84ED0D7A67EE867A84ED52
:102530000EAAC4ED108AC4ED0F2AEBEEA67A84ED44
:10254000110AA9EEA77ABDEC088B84ED0B7A10BDB9
:102550000023DFED0A7A0370BBE794ED039AF0EEF7
:10256000470AB0EE691A04F1180064F08DFE69EEB6
:10257000007ABDE7B0EE480ACFE700BF00000000D8
:10258000344870B490F86030A3F13001092957D86D
:1025900000F160046F30224612F8015FA5F13001AE
:1025A000092904D88242F7D1002070BC7047141B5F
:1025B000022C4BDD2848002101E010F8013B01EB23
:1025C0008101161A044603EB4103022EA3F13003E6
:1025D00003F0FF01F1DC214B03FB01F1A2424FF0BC
:1025E00000030ED903EB830314F8016B5B00A242D6
:1025F000A3F13003334403F0FF03F3D1184800FB89
:1026000003F32E2D06D01748A0FB032370BC01EB6B
:102610009300704701320425002404EB84041078F1
:10262000013D303864000928A4B2204401D80132A9
:1026300084B215F0FF05F0D1642202FB0433E2E717
:1026400000211D4600F160020B46DAE70021064C2E
:10265000C4E700BFA0380024013900248096980008
:1026600040420F00ABAAAAAA0039002480EAE07316
:10267000A3EBE0738B420ADB00280ADD431A4FF418
:10268000FA72501A02FB03F393FBF0F0704700203C
:102690007047FDD000F5FA734FF4FA70411A00FB51
:1026A00003F090FBF1F0A0F5FA7070479B1A00FB65
:1026B00003F393FBF1F18818704700BF71EEC11A64
:1026C00061EE801A81EEA00A30EE010A704700BF69
:1026D000084BD3E91C029B6F824202DB1146024683
:1026E0000846984204DD9A42B8BF1A461046704721
:1026F000704700BFA0380024124A30B4D2E91F034B
:10270000D2E921418342D2F88C2002DB1D460346E8
:1027100028468A4202DB15460A4629468842A8BF57
:1027200008469342B8BF1346A04202DC2246044644
:102730001046834203DAA342B8BF2346184630BC92
:10274000704700BFA03800240B6810B414681B1B2E
:10275000036054684B681B1B5DF8044B43608B6837
:1027600092689B1A8360704738B50D460446FF2176
:1027700000682A4664F002FC22682A44226038BDC0
:102780002DE9F043164685B08046084653F0FCFC20
:102790004FF47A720546002389463C245EF094FB90
:1027A000B6F900C00746494628464FF47A7200231E
:1027B0000CFB047700255EF087FB4FF47A7394B22C
:1027C00001A8C3FB07452B46224653F021FC404B92
:1027D00093F89230012B2FD0022B10D19DF8067068
:1027E000FB1E082B0BD83B1F062B1BD93946BDF807
:1027F000040053F0A1FB032F36D00B2F41D022460B
:102800002B46404653F004FC05B0BDE8F083032F8F
:1028100055D00A2FF3D19DF80870B7FA87F77F09D2
:10282000002FECD02B4B0022E418338803F13C033B
:1028300042EB05053380E2E79DF80670FB1E072B8F
:10284000DDD83B1F052BEDD93946BDF8040053F008
:1028500073FB9DF807309842D9D0033F18BF01277A
:10286000002FDFD1CBE707380E28FCDC9DF80730BE
:10287000834212D0CCBF01270027002FD2D1BEE760
:1028800007380728FCDC9DF8073083420ED0B4BF20
:1028900001270027002FC5D1B1E79DF80870012F4F
:1028A00094BF00270127002FBCD1A8E79DF808702E
:1028B000012F8CBF00270127002FB3D19FE79DF880
:1028C0000870003F18BF0127002FABD197E700BF6A
:1028D000A038002480EE360030B5046885B0E46985
:1028E0002CB10DF10F050095A04705B030BD204675
:1028F00005B030BD38B52321094C0A4DD5F8A000EC
:1029000050F0AEFA14F8011F0029F7D1064850F034
:10291000E1FA95F8A43013B1012385F8A53038BD4C
:1029200044FE0A08A038002450FE0A082DE9F04FA2
:102930009946D34389B006466FEA090BDB0F0025A1
:1029400005924FEADB7B07910693059BAB4207D0CC
:10295000069B2BB10135042DF7D109B0BDE8F08FEE
:10296000FA23244A0799002403FB05F3224F01EBC5
:10297000030802EB030AA1452B463A46304602D033
:10298000BBF1000F31D13AF814C038F814100CF034
:102990001F0E1CF4006FA1EB0C01CCF3441CCDF80E
:1029A00004E018BF4FF0560EB1FA81F108BF4FF0A6
:1029B000480E00944909CDE902CE049147F094FEF7
:1029C00038F81430049913F4006FC3F3441203F081
:1029D0001F0C009414BF562048202B46039030460D
:1029E000CDE901C23A4647F099FE01347D2CC2D1AF
:1029F000B0E700BF4839002460FE0A08404B414A56
:102A00002DE9F04F93F8806F89463F4D8BB0DFF88A
:102A100000B18046002E08BF2A464D46002693F995
:102A2000811F3A4803F51E6446F0D8FBB9F1000F48
:102A300047D02F782378D5F804C0BB4243D0D5E9DE
:102A400002E0002195F816A033465A460991CDF8C8
:102A50001CA0B5F914A0CDF818A0B5F912A0CDF8B6
:102A600014A0B5F910A00097CDE9030ACDE901CE75
:102A7000404647F039FE0999A07D3346B4F914A0C9
:102A80000136B4F912E05A46B4F910C01835E768B7
:102A900007904046CDF818A0D4F808A0CDF814E06F
:102AA000D4F804E0CDF810C014F818CBCDE902A793
:102AB000CDE900CE47F032FE3C2EB7D10BB0BDE8D9
:102AC000F08F4946D8E76368D5F808E0634501D040
:102AD000E868B6E7A368E8687345B2D1E368834263
:102AE000AFD122692B699A42ABD162696B6922F03E
:102AF0007F4223F07F439A42A3D10121A2E700BF86
:102B0000A8270024FC040B087CFE0A0880FE0A08A3
:102B100090FE0A081C4A2DE9F00354681B4E002C55
:102B2000D6F8F03303600DDD0832002306F57C751E
:102B300001E09C4206D052F8041B0133A942F8D1AF
:102B4000012200E00022D6F8FC330271836096F87F
:102B500000240F4B4271D6F8202453F8041C52096C
:102B6000D6F818744E0942EAC162F3E80289D3E943
:102B70000045C0E904898762C0E90826C0E9064526
:102B8000BDE8F003704700BF0000002000000024F3
:102B900028040024014B986A704700BF00000024FD
:102BA000014BD3F80001704700000024014B186F5F
:102BB000704700BF000000240C46054608B52DF004
:102BC00031FA20462DF02EFA002108464CF01AFC6E
:102BD000002101204CF016FC03E020464BF002FDE2
:102BE000F0B928464BF0FEFC0028F6D00121002069
:102BF0004CF008FC28464BF0EDFC064620464BF016
:102C0000EDFC0028FAD0314620464BF011FD0021A2
:102C100008464CF0F7FB20464BF0E4FC0028E0D0DF
:102C2000012100204CF0EEFB20464BF0D3FC064681
:102C300028464BF0D3FC0028FAD0314628464BF00A
:102C4000F7FC002108464CF0DDFBCAE7F0B5002296
:102C500089B0DFF898C004AF13460A613E46C1E967
:102C60000022C1E902220268C2F3855040FA03F44F
:102C70003546E40704D513F80C4005F8014B2E4601
:102C80000133062BF2D1174DC2F303240023C2F304
:102C900005302C4405F13C0C33700DF1190694F805
:102CA00034408DF8184040FA03F43546E40704D563
:102CB00013F80C4005F8014B2E460133062BF2D1D8
:102CC0000023C2F3834506AC0846337002F00F03BD
:102CD0000549C2F303120097CDE9014553F058FBB3
:102CE00009B0F0BDD0720A08B0FE0A08FC720A08EA
:102CF000414A10B492F89930916F023BD2E91F40DB
:102D0000062B74D8DFE803F05A5C605006550400C7
:102D100064424942404280EAE0739FED386AA3EB87
:102D2000E07307EE103A84EAE473A3EBE473B8EEC1
:102D3000C77A06EE903A81EAE17327EE066AF8EE6A
:102D4000E66AA3EBE17307EE903AB4EEE66AF8EEBA
:102D5000E77AF1EE10FA04DDB4EEE76AF1EE10FA6C
:102D600034DC9FED266A26EE866AB4EE467AF1EEF2
:102D700010FA04D5B4EE676AF1EE10FA2DDC9FED7F
:102D80001F6A67EE867AB4EE677AF1EE10FA2BD5F9
:102D9000F4EE676AF1EE10FA26D50029CCBF0420C4
:102DA00005205DF8044B70474B42404221461C46CB
:102DB000B1E7634240420C461946ACE74942AAE7F4
:102DC0004B4261421C46A6E76442A4E700285DF836
:102DD000044BCCBF002001207047002C5DF8044B51
:102DE000CCBF0220032070474FF0FF30D9E72346C5
:102DF0000C4619468FE700BF00000020ABAA2A3F0F
:102E000030B5284C83B0DFED286A14F8933CD4F831
:102E1000B45407EE903A14F8923CF8EEE77A07EED5
:102E2000103A94F89034B8EEC77A67EEA67A04EBBD
:102E30004302013327EE267AB2F89414FDEEE77AC6
:102E4000A2F89404401A03F00F0317EE902AFDEE47
:102E5000C77A284484F8903417EE901AC4F8B40462
:102E600000098A4211DC114680B217EE902A40F226
:102E7000FF350023009554F07DFA2A46002154F0D6
:102E800095FAA4F8B80403B030BD80B28142D4BF33
:102E9000401A0020824202DB101A80B2E7E70020CD
:102EA000E5E700BFA038002414AE2341854BD3F8DA
:102EB000580110F40030F0B440F0B080824D834FE0
:102EC00005F52166D5F87045D7ED553AD6ED007A6F
:102ED00097ED563A67EEA32AD7ED574A7C4A27EE7C
:102EE000832A67EEA41A97ED544A22EEA47AD2ED13
:102EF000076A67EE847AD5F8341C62EE845AA1EE34
:102F0000A37A8B7A24EE276A5D42E1EE835AA1EE22
:102F1000A46A05EE105AF2EE041A36EE877AB8EE7D
:102F2000C55AE7EEA35AA2EE447AF0EE466A25EEC1
:102F3000215AE2EE436AB0EE656AA7EEC37AA2EECA
:102F4000246AF0EE477AB0EE667AF4EEC57AA2EE25
:102F5000E37AF1EE10FA07D406EE903AB8EEE65AAC
:102F600025EE215A85FE675A82ED075AF2EE045A81
:102F7000CB7A94ED375A5D42D2ED976A07EE905ABC
:102F8000E5EE066AF8EEE77A67EEA57AF4EEE76A10
:102F9000F1EE10FA07D407EE903AF8EEE77A67EE12
:102FA000A57AC7FEE67AC2ED977A0B7BC8B95A427A
:102FB000F2EE046A07EE902AF8EEE77A67EEA67A58
:102FC000F4EEC77AF1EE10FA07DC07EE903AF8EE6D
:102FD000E77A67EEA67AC7FEC77AC6ED007AF0BC3C
:102FE00070475A42D4ED365AD6ED006AB2EE046A02
:102FF00007EE902AE5EE876AF8EEE77A67EE867AC2
:10300000F4EEE76AF1EE10FAE7D407EE903AF8EE44
:10301000E77A67EE867AC7FEE67ADEE72B4F9FED0A
:103020002D7A97ED563AD7ED553A63EE037AE3EEF3
:10303000A37AF4EEC77AF1EE10FAD0D8224DD5F883
:10304000FC349B0639D505F5A063D5F8704593EDA2
:10305000056ADFED216A9FED217AB4EEE60ADFED25
:10306000207A86FE476A86FE276AF1EE10FA57D468
:10307000DFED1D7AB4EEE70AF1EE10FA00F37D8180
:10308000F0EEE00ADFED1F4A70EEA47A74EEC04A5B
:10309000BDEEE77A17EE103A2033402B00F2748130
:1030A000BDEEE47AF1EE406A17EE102ABDEEE67A44
:1030B000203217EE101A203148E0D5F8704594ED13
:1030C000356AC6E7A8270024A038002400000020A5
:1030D000143E0024CE8BD33E920A86BF0080BB45AF
:1030E00000009643368D2740920A863FE12E6542C6
:1030F000DB0FC9BFE4CB1641DB0F49C0DB0FC94072
:10310000E4CB16C1DB0FC93FDB0F49409A7C2E365A
:10311000FAAF4FB93587083CA4AA2ABE8F2A754456
:10312000B0EE660A212122225FED124A5FED126A9B
:10313000F0EEE00A5FED0D7A70EEA77ABDEEE77A69
:1031400017EE103A2033402B00F22D811FED127A3A
:10315000F4EEC77AF1EE10FA0CDD1FED185A5FEDB0
:103160001B5AB0EE677A77EEC57AB4EEE57AF1EEE7
:1031700010FAF6DC1FED207AF4EEC77AF1EE10FAC1
:103180000CD51FED225A5FED225AB0EE677A77EE2A
:10319000857AB4EEE57AF1EE10FAF6D41FED277ACF
:1031A000F4EEC77AF1EE10FA40F3DA801FED2A7AD6
:1031B00077EE677A67EEA75A1FED2C7A5FED2C2A1F
:1031C0001FED2C4AE5EE872A1FED2D5A27EEA52A82
:1031D0001FED3A7AA5EEA24AA5EE845AE2EE057AF0
:1031E00027EE877A402900F29F805FED397AF4EE6E
:1031F000E76AF1EE10FA0CDD1FED405A5FED435A1D
:10320000F0EE667A76EEC56AF4EEE57AF1EE10FA43
:10321000F6DC5FED477AF4EEE76AF1EE10FA0CD5D2
:103220001FED4A5A5FED4A5AF0EE667A76EE856AED
:10323000F4EEE57AF1EE10FAF6D45FED4E7AF4EEA4
:10324000E76AF1EE10FA7EDD5FED517A77EEE66A1D
:1032500066EEA67A5FED535A1FED534A1FED535A9F
:10326000A7EEA54A5FED545A66EEA72AA7EE845A48
:10327000E7EE855AE2EEA56A402A52D85FED647AFD
:10328000B4EEE70AF1EE10FA0CD51FED645A5FEDCB
:10329000675AF0EE647A74EEC54AF4EEE57AF1EE20
:1032A00010FAF6DC5FED6C7AF4EEE74AF1EE10FA14
:1032B0000CD51FED6E5A5FED6E5AF0EE647A74EE27
:1032C000854AF4EEE57AF1EE10FAF6D45FED737A02
:1032D000F4EEE74AF1EE10FA29DD5FED757A77EE4C
:1032E000E44A64EEA47A5FED775A1FED774A1FED4A
:1032F000775AA7EEA54A5FED785A64EEA72AA7EEA3
:10330000845AE7EE855AE2EEA54AC6EEA47A5FED4E
:103310007D6A264E67EEA66AC6EE867A67EE877AE3
:10332000D8E5DFED234AF0E7DFED216AA4E7DFED22
:10333000217AF4EEE74AF1EE10FAD2D5DFED1E7AEB
:1033400077EEE44ACDE7DFED1B7AF4EEE76AF1EEC3
:1033500010FA7FF57DAFDFED187A77EEE66A77E752
:103360009FED147AF4EEC77AF1EE10FA7FF522AFF2
:103370009FED117A77EE677A1CE7B0EE670A1F219E
:103380002022DFED0E4AD3E6FDEEE47A9FED087AC7
:10339000F1EE406A17EE902AFDEEE67A203217EE43
:1033A000901A20311EE79FED027A32E7B0420024E6
:1033B00000000000DB0FC9BFDB0F49C0920A063FC7
:1033C0002DE9F047084D95F8D13D2DED048B82B0E5
:1033D000062B00F20F84DFE813F081056905210454
:1033E00009001F0476046605A03800247F4C0423DE
:1033F00094ED8E7AD4ED907AD4ED926A67EE072A36
:1034000027EEA73A94ED947AD4ED967A66EEA63A32
:10341000D4ED8D1A27EE074A94ED8F2A67EEA74A5E
:10342000D4ED986AE1EEA12A94ED9A7AA2EE023ADE
:10343000D4ED9C7A26EEA65A94ED911A67EE075ABF
:10344000D4ED931A27EEA76A94ED952AE1EE013A9E
:10345000D4ED9E6AA1EEA14A94EDA07AE2EE024A72
:10346000D4EDA27A66EEA66A94ED971A27EE077A53
:10347000D4ED991A67EEA77A94ED9B2AA1EE015A32
:10348000E1EEA15A94ED9D1AA2EE026AD4ED9F1AC4
:1034900094EDA12AE1EE016AA1EEA17AE2EE027AB0
:1034A000B1EEE22AF1EEC32AB1EEE33AF1EEC43A0C
:1034B00084ED6D2AB1EEE44AC4ED6E2AF1EEC54A00
:1034C00084ED6F3AB1EEE55AC4ED703AF1EEC65AAA
:1034D00084ED714AB1EEE66AC4ED724AF1EEC76A54
:1034E00084ED735AB1EEE77AC4ED745A84ED756ACF
:1034F000C4ED766A84ED777A94EDA47AD4EDA67A59
:1035000067EE075AD4EDA86A27EEA76A94EDAA7A67
:10351000D4EDAC7A66EEA66AD4EDA34A27EE077A1C
:1035200094EDA55A67EEA77AE4EEA45A94EDA74A63
:10353000A5EE056AD4EDA94A94EDAB5AE4EE046A0F
:10354000A4EEA47A85F8D13DE5EE057AB1EEE55A10
:10355000F1EEC65AB1EEE66AF1EEC76A84ED785A2A
:10356000B1EEE77AC4ED795A84ED7A6AC4ED7B6AEC
:1035700084ED7C7A95F86A2F0F2A00F37785002373
:1035800002F16D019FED1A7A04EB81011E46184687
:10359000D1ED007A38B951ED016AF4EEE67AF1EE38
:1035A00010FA09DDD6B2B4EEE77A0120F1EE10FA96
:1035B00002D5B0EE677AD3B201320431102AE7D1D6
:1035C00004EB8302591C0F2BD2ED6D7A07EE101A13
:1035D00006F1010267EEA76AB8EEC77A66EEA77A2F
:1035E00027EE277A00F06D8104E000BFD844002464
:1035F0000000000005EB83015E1C04EB830001F674
:103600003841D0ED6E6A91ED6D6AF4EEC66AF1EE66
:1036100010FA40F1568166EE065A05EE106A0F2E3A
:10362000B8EEC55A25EE866AA5EE067A77EE867A5A
:1036300000F02D850146981C91ED6F6AB4EEE66AA4
:10364000F1EE10FA40F13D8166EEA65A05EE100A41
:103650000F28B8EEC55A65EEA66AA5EE267A77EE73
:10366000A67A00F01685D1ED706AD81CF4EEC66A11
:10367000F1EE10FA40F1258166EE065A05EE100AC9
:103680000F28B8EEC55A25EE866AA5EE067A77EEC3
:10369000867A00F0008591ED716A181DB4EEE66A35
:1036A000F1EE10FA40F10D8166EEA65A05EE100A11
:1036B0000F28B8EEC55A65EEA66AA5EE267A77EE13
:1036C000A67A00F0EA84D1ED726A581DF4EEC66A5B
:1036D000F1EE10FA40F1F58066EE065A05EE100A9A
:1036E0000F28B8EEC55A25EE866AA5EE067A77EE63
:1036F000867A00F0E68091ED736A981DB4EEE66A72
:10370000F1EE10FA40F1DD8066EEA65A05EE100AE1
:103710000F28B8EEC55A65EEA66AA5EE267A77EEB2
:10372000A67A00F0CE80D1ED746AD81DF4EEC66A98
:10373000F1EE10FA40F1C58066EE065A05EE100A69
:103740000F28B8EEC55A25EE866AA5EE067A77EE02
:10375000867A00F0B68091ED756A03F10800B4EE48
:10376000E66AF1EE10FA40F1AC8066EEA65A05EE7C
:10377000100A0F28B8EEC55A65EEA66AA5EE267A9D
:1037800077EEA67A00F09D80D1ED766A03F109000C
:10379000B4EEE66AF1EE10FA40F3938066EE065A54
:1037A00005EE100A0F28B8EEC55A25EE866AA6EE79
:1037B000057A77EE867A00F0848091ED776A03F1DE
:1037C0000A00F4EEC66AF1EE10FA7ADD66EEA65A49
:1037D00005EE100A0F28B8EEC55A65EEA66AA6EEE9
:1037E000857A77EEA67A6CD0D1ED786A03F10B007A
:1037F000B4EEE66AF1EE10FA63DD66EE065A05EE07
:10380000100A0F28B8EEC55A25EE866AA6EE057A8C
:1038100077EE867A55D091ED796A03F10C00F4EEDB
:10382000C66AF1EE10FA4CDD66EEA65A05EE100AF5
:103830000F28B8EEC55A65EEA66AA6EE857A77EE31
:10384000A67A3ED0D1ED7A6A03F10D00B4EEE66AB5
:10385000F1EE10FA35DD66EE065A05EE100A0F2875
:10386000B8EEC55A25EE866AA6EE057A77EE867A18
:1038700027D091ED7B6A03F10E00F4EEC66AF1EEFB
:1038800010FA1EDD66EEA65A05EE100A0F28B8EEF5
:10389000C55A65EEA66AA6EE857A77EEA67A10D0AE
:1038A000D4ED7C6AF4EEC66AF1EE10FA09D566EE44
:1038B000066AF2EE0E5A26EE866AA6EE257A77EEB4
:1038C000867A934240F34F8105EB8301581E04EB47
:1038D000830601F63841D6ED6C6A91ED6D6AF4EE1F
:1038E000C66AF1EE10FA40F13E81591C66EE065AA6
:1038F000904205EE101A25EE866AB8EEC55A77EEAC
:10390000867AA5EE067A40F32E8196ED6B6A991EB3
:10391000B4EEE66AF1EE10FA40F1258166EEA65AA1
:10392000914265EEA66A05EE903AF8EEE55A77EE1A
:10393000A67AA5EEA67A40F316813746DE1ED7EDAD
:103940006A6AF4EEC66AF1EE10FA40F10C8126EED6
:10395000065A05EE900A9642F8EEE55A25EE066AFA
:10396000A5EE867A77EE867A40F3FD8097ED696A58
:10397000181FB4EEE66AF1EE10FA40F1F48026EE7C
:10398000A65A05EE901A9042F8EEE55A65EE266AC0
:10399000A5EEA67A77EEA67A40F3E580D7ED686AC1
:1039A000591FF4EEC66AF1EE10FA40F1DC8026EE03
:1039B000065A05EE906A9142F8EEE55A25EE066A3F
:1039C000A5EE867A77EE867A40F3CD8097ED676A2A
:1039D0009E1FB4EEE66AF1EE10FA40F1C48026EEC6
:1039E000A65A05EE900A9642F8EEE55A65EE266A6A
:1039F000A5EEA67A77EEA67A40F3B580D7ED666A93
:103A0000D81FF4EEC66AF1EE10FA40F1AC8026EE53
:103A1000065A05EE901A9042F8EEE55A25EE066A2F
:103A2000A5EE867A77EE867A40F39D8097ED656AFB
:103A3000A3F10801B4EEE66AF1EE10FA40F19380CA
:103A400026EEA65A05EE906A9142F8EEE55A65EE2A
:103A5000266AA5EEA67A77EEA67A40F38480D7EDA3
:103A6000646AA3F10906F4EEC66AF1EE10FA7AD59B
:103A700026EE065A05EE900A9642F8EEE55A25EE35
:103A8000066AA5EE867A77EE867A6CDD97ED636A34
:103A9000A3F10A00B4EEE66AF1EE10FA63D526EE61
:103AA000A65A05EE901A9042F8EEE55A65EE266A9F
:103AB000A5EEA67A77EEA67A55DDD7ED626AA3F178
:103AC0000B01F4EEC66AF1EE10FA4CD526EE065A5A
:103AD00005EE906A9142F8EEE55A25EE066AA5EEEB
:103AE000867A77EE867A3EDD3E46A3F10C0796EDA8
:103AF000616AB4EEE66AF1EE10FA34D526EEA65A03
:103B000005EE900A9742F8EEE55A65EE266AA5EEB4
:103B1000A67A77EEA67A26DDD6ED606A0D3BF4EE46
:103B2000C66AF1EE10FA1ED526EE065A05EE901A78
:103B30009342F8EEE55A25EE066AA5EE867A77EE10
:103B4000867A10DD94ED6E6AB4EEE66AF1EE10FA54
:103B500009D526EEA66AF0EE085A66EE266AA6EEAB
:103B6000A57A77EEA67AF5EEC07AF1EE10FA40F378
:103B7000728287EE278AD4EDCD7A95F8D2ADB7EE72
:103B8000007A38EE478A28EE278AB5F8700F5CF085
:103B9000F3FC064618EE100A0F465CF00FFD804657
:103BA00089463046394642464B465CF0E5FF08B947
:103BB00046464F46394630465DF028F800EE100A7A
:103BC0000AEBCA0304EB830000F52D7063F050FB91
:103BD00095F8D22DBCEEC00A95F8D13D02F5C87219
:103BE00005EB420210EE100AB2F8381CA2F8380CAD
:103BF000A2F83E1C5A1CB44BA3FB0213D11A03EBD0
:103C000051039B08C3EBC303D31A85F8D13D02B01F
:103C1000BDEC048BBDE8F087AC4CABE4AC4CAB4ED8
:103C2000B0EE006AB5F8D41DF6EE006AD6ED6E7AF5
:103C30003346D6ED6D5A013977EEA77AD5F8E82DDF
:103C400004EBC100B0EE664A1032B0EE677A083875
:103C5000D5EE867AA5EE867A67EEA67A27EE267AE4
:103C6000C6ED8E7A86ED8D7AD0ED036A0139D0EDFE
:103C7000027A02F10802D3ED705AA0F10800D3EDE8
:103C80006F4A03F1080335EEE67A12ED036A37EE68
:103C9000E45A77EEA47A76EEA56A52ED045AA6EEBF
:103CA000057AE5EE857AA5EEE67AE6EE267A27EE47
:103CB000047A67EE847A83ED8E7AC3ED8D7AD3D160
:103CC00095F8D13D96E795F8D22D02F5C87305EB2E
:103CD0004303B3F8381CB3F83E3C8B4206D00123B3
:103CE00085F8652FA5F8661F85F8643F0132794B8A
:103CF0000621A3FB020385F8D11D03F4FF7101EB3C
:103D00005303D21A85F8D22D95F84C3C6F4C9E1D6A
:103D1000C3F1200306EB421213F0FC0FC3F385013D
:103D2000DFB204EB820600F0AD81013106F1100232
:103D30002346080106EB011112ED026A103293EDE1
:103D4000D17A103352ED076A52ED057A26EE076AF2
:103D5000D3EDCC4A12ED087A8A4293EDCB5A66EE47
:103D6000A46AD3EDCE5A27EE057A83ED6B6A67EE2F
:103D7000A57AC3ED6A6A83ED697AC3ED6C7ADBD10B
:103D8000554BA0F11001A3F5C4720E440B4411442D
:103D900017F003021BD0D6ED007A013A93ED007ABA
:103DA00067EE877AC1ED007A11D0D6ED017A012A4B
:103DB00093ED017A67EE877AC1ED017A07D0D6EDEF
:103DC000027A93ED027A67EE877AC1ED027A95F86E
:103DD0004C6C002E3FF474AFCF3795F8D23DB0084D
:103DE00004EB870C04EBC313ACF5C47C04EB870431
:103DF00003F1180734D0013007F1100304F110016A
:103E00000CF110024FEA001E07EB001013ED046ADC
:103E1000103351ED047A103253ED066A103126EE5C
:103E2000276A51ED067A13ED077A51ED075A66EECF
:103E3000A76A53ED057A834202ED086A27EE257AD8
:103E400011ED056A42ED066A67EE867A02ED077AA1
:103E500042ED057ADAD1AEF110031F441C449C44B4
:103E600016F003033FF42CAFD7ED007A013B94ED3D
:103E7000007A67EE877ACCED007A3FF421AFD7ED78
:103E8000017A012B94ED017A67EE877ACCED017A05
:103E90003FF416AFD7ED027A94ED027A67EE877A97
:103EA000CCED027A0CE795F8D22D2DE7084CD5F829
:103EB000DC2D2046B5F8E01D5CF05AF995F8D13DAF
:103EC000013385F8D13DAAE625499224D84400243F
:103ED0008C460024ABAAAAAA14480024B5F8D43D05
:103EE0006F4C5908D5F8D82D04EB8308DB084FEA4E
:103EF000810004EB810E00F0A0805E1C10300EF1FA
:103F0000100302F1100C0EEB061E404408F11007DE
:103F1000A4F5DA7657ED047A103396ED6D1A0CF1AC
:103F2000100C50ED041A103613ED086A71EE278A52
:103F300057ED032A31EE671A10ED032A36EE218A77
:103F400057ED013A71EEC61A13ED064A103753EDDC
:103F5000054A103057ED066A53ED075A50ED067AC0
:103F600010ED057A35EE820A96ED6B3A72EE655ADF
:103F700096ED6A5A74EE270A96ED6C6A77EEC47A6B
:103F8000C6ED698A35EE229A36EE232A35EE625A5C
:103F900073EE268A86ED6A9A74EE872A86ED6C2A7D
:103FA00037EE647AC6ED6B8A73EE666A43ED052AD6
:103FB00036EE636A03ED088A03ED070A43ED060A4D
:103FC00073455CED074A1CED084A24EEC12A24EE35
:103FD000653A65EE242AA5EE042A61EE843AB0EE35
:103FE000435AE1EE042AE5EEA43AA1EEA45A07ED05
:103FF000072A47ED082A40ED073A00ED085A5CED24
:10400000055A1CED065A26EE253A65EEE63A27EEED
:10401000854A65EE474AE6EE053AA6EE853AA7EEF2
:10402000254AE7EEA54A07ED063A47ED053A00EDC9
:10403000054A40ED064A7FF46DAF89B220460191F2
:10404000FCF742F801994046D5F8D82DFCF73CF82A
:1040500095F8D13DCEE595F8D2AD05EB4A03B3F81E
:104060005E3F08EE103AB8EE488A8EE5D4ED6D7AE0
:104070000122002327EEA77A67EE277AB0EE677A4F
:10408000FFF7B8BA04F5DA7104F54F7380E60E2332
:1040900017E40D2315E40C2313E40B2311E400BFF4
:1040A0008C460024064B93F8291603F61C1203F6DF
:1040B0000413002918BF134693ED020A704700BF8E
:1040C000A82700242DE9F04F2DED028B87B0364D47
:1040D0000446B0EE408A03901046D5F8F49F0E4691
:1040E00017469B465CF0FEF80146D9F800C04FF039
:1040F0000008214489F80B6048463B4689F80A10BD
:1041000032462146CDF80080DCF814409DF848A0E6
:104110009DF84C90A0479FED250A5346424604A8BF
:1041200028EE000ACDF804B0CDF80080FDEEC07A8C
:1041300017EE901A14F070FFD5F8F83F13B11B7802
:104140004B452ED041F20403EB5813B11B784B457D
:1041500027D041F21003EB5813B11B784B4520D008
:1041600041F21C03EB58D3B11B78A3EB0909B9FA50
:1041700089F94FEA591938465CF0B4F8039C04AB4E
:1041800032460134CDF800902118D5F8F40FC9B2A9
:104190004BF0F2F907B0BDEC028BBDE8F08F994609
:1041A000E9E74FF00109E6E7A03800240000C84223
:1041B00030B41C7884B1012C0CD1B3F902408AB11F
:1041C000157B94FBF5F40470B3F90430527B93FB38
:1041D000F2F30B7030BC70479A780270DB7830BC19
:1041E0000B707047054AE51782FB04241222C5EBC9
:1041F00064040470B3F90430E9E700BFABAAAA2A4B
:1042000030B41C784CB1012C05D1B3F90220B3F9BC
:10421000043002600B6030BC70479C7852B1157B53
:10422000DB7815FB04F40460527B03FB02F330BC23
:104230000B60704704EB4404DB781222A400046096
:10424000F3E700BF30B50C4683B00546019210F08D
:1042500059FE019B224629464BF048FA0B4911F9B9
:10426000D03C5A1C01EB430352B203F8CC5C03F878
:10427000CB4C352A05DD0023012001F8D03C03B0EA
:1042800030BD012001F8D02C03B030BD9849002486
:10429000104A034630B592F8E84083B0012C10D99B
:1042A00004220D888C7874200DEB02018DF8043007
:1042B000ADF805508DF807402CF018FA012003B036
:1042C00030BD02D0002003B030BD92F8E920622A50
:1042D000E6D8F7E798490024F8B5214D1D260C468D
:1042E000074685F810612AF0A7F900202AF024F982
:1042F00008202AF021F90E202AF01EF930462AF073
:104300001BF904202AF018F904202AF015F90020DE
:104310002AF012F930202AF00FF900202AF00CF9C7
:1043200020462AF009F900202AF006F92AF062F95D
:1043300005F58A702AF060F800B9F8BD95F81531D6
:104340000BB1302B0AD195F8142195F8163113438F
:1043500004D195F8173101203B70F8BD0120F8BD5C
:10436000984900242DE9F04F0023B34F0024002585
:1043700007F598711A462DED028B85B0C7E94A45BD
:1043800001F833200133122BFAD1AC4C07F59866B3
:10439000DFF8B08204F54075DFF8AC929FEDA88A93
:1043A00005E000232B6018340835A64247D094F965
:1043B0000130002B05DB07EBC303D3F8C034002B1F
:1043C000EFD02378002BECD02B79DA07EBD4A1685F
:1043D000207928F093FF21698246207B28F08EFF08
:1043E000A2788346282ADCD8DFE812F04700BF0114
:1043F000AF01B70181028F019A01A40152025B0251
:1044000062026D02760243007C027E02D3004D0000
:10441000910073009C005500C700AD00BB00DC019B
:10442000F701040211021E022B024402CF013001E7
:104430004B0158017F01F2000301DF00C70197F82B
:10444000743613B197F8763623B905B0BDEC028BFC
:10445000BDE8F08F97F875264021D7F878064BF025
:10446000B9FA002387F8763605B0BDEC028BBDE8BB
:10447000F08FBAF1000F00F044820122237D2A6000
:10448000DA073FD48FE7002840F04582BAF10002F6
:1044900018BF01222DE05FFA8AF0072800F235826A
:1044A000BBF100025FFA8BF397F875164FF0010C21
:1044B00018BF0122003B0CFA00F0DA4618BF0123B6
:1044C00087F876C65B424B4003404B4087F8753611
:1044D0000FE05FFA8AFA504628F0E4FE03465046A1
:1044E0000BEB030A514628F0C7FEBAF1000218BFD1
:1044F0000122237DC5F800A0DB077FF554AF002A19
:104500003FF451AF2B7943F001032B714BE75FFA76
:104510008AF0594628F0B0FEBBF10002DA4618BF17
:104520000122E6E75FFA8AFA504628F0BBFE03460E
:104530005046A3EB0B0A514628F09EFEBAF100024A
:1045400018BF0122D5E70122D7F82831C7F81CA6E9
:104550002A6043F00203227DC7F82831D007D1D466
:1045600021E7D7F828310121227D43F00403296097
:10457000D107C7F82831C5D415E7D7F8283101216C
:10458000227D0B432960C7F82831D3077FF50BAF95
:10459000B8E700FB0AF047F6FF72414652F006FF0B
:1045A000021E824618BF0122A3E7642000FB0AF026
:1045B00052F014FF89FB003AC017C0EB6A1A0FFAD9
:1045C0008AF02EF025FABAF1000218BF012290E716
:1045D00050464FF47A72002152F0E8FE00225B460A
:1045E0004FF47A71FEF762F8021E824618BF01226C
:1045F0007FE70AF1FF30112200214FF0010A52F04B
:10460000D5FE034658464FF4FA6207EBC30B4FF44E
:104610007A718BF830A152F0C9FED7F82831227D8B
:1046200043F48073C5F800A0D107CBF83401C7F874
:1046300028313FF567AFB6E698490024584B00246F
:1046400035FA8E3C0080FFFF1F85EB5107EE90AAE4
:104650000028B8EEE70A08BF4FF4FA7B20EE080AFC
:1046600053F000F807EE90BAF8EEE77A27EE800AEA
:10467000FDEEC07A17EE90AABAF1000218BF01222F
:1046800037E707EE90AA0028B8EEE70A08BF4FF414
:10469000FA7B20EE080A52F06BFFE3E707EE90AAE0
:1046A0000028F8EEE78A08BF4FF4FA7B68EE888AA4
:1046B000B0EE680A52F0D6FFF0EE407AB0EE680A2B
:1046C000F0EE678A52F054FF07EE90BAB8EEE77A40
:1046D000C8EE807A67EE877AFDEEE77A17EE90AA49
:1046E000BAF1000218BF012203E750465A460021E2
:1046F00052F05CFE002259464FF47A73FDF7D6FF64
:10470000021E824618BF0122F3E6AAF2355ABAF514
:10471000A77F2CBF4FF0000A4FF0010A5246E8E68F
:1047200040F282639A45D4BF4FF0000A4FF0010A6D
:104730005246DEE6003818BF0120BAF1000F14BF60
:1047400082464FF0000A5246D3E68245D4BF4FF06E
:10475000000A4FF0010A5246CBE68245ACBF4FF04B
:10476000000A4FF0010A5246C3E6AAEB000ABAFA61
:104770008AFA4FEA5A1A5246BBE600283FF486AE40
:104780009AFBF0F00BFB10A005E7D7F82831BAF13F
:104790000002C7F840A643F0800318BF0122C7F803
:1047A0002831A6E6D7F824369A453FF4FAAD694693
:1047B000D7F8640649F0C0FD002867D050469DF840
:1047C0000220012152F0F2FD021E8246C7F82406A3
:1047D00018BF012287F86A068BE6D7F82831012135
:1047E000227D43F008032960D207C7F828313FF53E
:1047F00089AED8E5D7F828310121227D43F0100396
:104800002960C7F82831D3073FF57CAECBE5D7F850
:1048100028310121227D43F020032960D007C7F809
:1048200028313FF56FAEBEE5D7F82831BAF1000266
:10483000C7F834A643F0400318BF0122C7F8283157
:1048400057E6D7F838369A453FF4ABAD6946D7F806
:10485000640649F071FDC8B150460522012152F0AD
:10486000A5FD021E8246C7F8380618BF012287F848
:1048700068063EE6D7F83C369A453FF492AD694665
:10488000D7F8640649F058FD002847D128608AE52A
:104890005AEA000314BF4FF0010A4FF0000A5246D3
:1048A00027E6BAEB000A18BF4FF0010A524620E68D
:1048B000B0FA80F04009BAF1000F14BF82464FF001
:1048C000010A524615E65AEA00030CBF4FF0010AEE
:1048D0004FF0000A52460CE6BAFA8AFA4FEA5A1A20
:1048E000524606E6504456E6AAEB000053E640F274
:1048F00034539A45CCBF4FF0000A4FF0010A52469C
:10490000F7E5C8B9D5F800A0C0E5BBF10002DA466A
:1049100018BF0122EDE59AFBF0F03CE65046082274
:10492000012152F043FD021E8246C7F83C0618BF23
:10493000012287F86906DCE5C5F800A033E500BF71
:10494000164991F8602032B3F0B4064600200346C1
:10495000074602E092F86020DAB100EB80002E2AD0
:104960004FEA400004D10133CA18324482F8607023
:10497000CA18A0F1300592F86020A2F13004092C89
:1049800098BF50190E2B03F1010301EB0302E1D98B
:104990000020F0BC70470020704700BFA038002402
:1049A00070B5174D0646D5F87C0603791E3B012BE2
:1049B00002D9002149F03CFE002E09DD114C2644AD
:1049C00014F8011BD5F87C0649F032FEA642F7D157
:1049D00095F8D3366BB90C4A0021B5F8E036D2F819
:1049E00094050133094AC5F8D806A5F8E0365160A8
:1049F00070BD0021D5F87C0649F01AFEEBE700BF38
:104A00009849002418500024A8270024705000243E
:104A100038B5084CB4F85A572DF03EFD854205DDF7
:104A2000B4F85A27044BA3F8662138BDBDE83840D6
:104A300009F09AB89849002400000020036813F098
:104A4000400004D013F4057F14BF012000207047FC
:104A50002DE9F043264D85B0264C804605F124090A
:104A60000F461646C4F8E45FC4F8E89FFDF7AAFBBA
:104A7000214804F6B8714FF0120C42F6F8220023D8
:104A8000C4F8D80F402084F8B8CFC1E902232BF036
:104A900013FD044630B3FFF7D1FF98F800C0B0F122
:104AA00000083F7894F904004B4614BF032201220A
:104AB000BCF1000F009601924FF040010CBF07249B
:104AC0000624012F0D4AA5F274750CBF0826002696
:104AD000344302942BF0D0FAB8F1000F05D100381E
:104AE00018BF012005B0BDE8F083C5F8D807F6E788
:104AF0000C510024A82700245D6206087571060881
:104B00000248034AA0F195019638A1E7A038002495
:104B1000400D03000248034AA0F19501963897E73B
:104B2000A0380024A0860100F0B5C44C85B0D4F8AC
:104B3000DC672EB13046FFF781FF002840F06D8121
:104B400094F8E807FBF7C4FE94F8E0370546834283
:104B50001CD0002800F07E81C6B1B94B02214FF471
:104B6000165296F9040093F8755000230191042120
:104B7000B5FA85F500921A466D0902952BF07CFA7C
:104B8000C4F8E40710B1012384F8E03794F8E9078A
:104B9000FBF79EFE94F8EA37054683421ED00028B4
:104BA00000F01781D4F8EC37C3B1A54D032193F978
:104BB0000400002395F87C504FF49642019108219F
:104BC0009D4200921A4618BF0D4602952BF054FAEA
:104BD000C4F8F00710B1012384F8EA37FBF78EFE22
:104BE000D4F8F4572DB12846FFF728FF002840F0ED
:104BF000F98094F80008FBF76BFE94F8F837064646
:104C0000834232D0002800F02E818D4E96F87F30FE
:104C1000012B00F03881022B0CBF8A4A8A4AC4F863
:104C2000FC2715B32A7A002A00F02A81022A00F014
:104C30002E81012A40F03981824A4FF49663C4F8EC
:104C4000FC2795F904000221002500930191102111
:104C50002B462A4602952BF00FFAC6F85C0120B1CC
:104C6000012384F8015884F8F83794F80208FBF718
:104C70002FFE94F803380546834235D0002800F013
:104C80009F80D4F80438CBB11A7A002A00F0F5805E
:104C90006E4901EB8202526C93F904000321002358
:104CA000009201914FF480711A4602932BF0E4F9BF
:104CB000C4F8080810B1012384F80338604A644B33
:104CC000B2F8A41092F8A65092F8A700A3F80E1814
:104CD00092F8A81092F8A92083F8125883F81608C1
:104CE00083F8171883F8182894F80C08FBF7F0FDE0
:104CF00094F80D380546834227D058B34FF4FA7024
:104D0000FDF7E0F8D4F81038FBB11A6802F410721D
:104D1000B2F5107F19D093F9040008210322002373
:104D20004FF4E135029101924FF400711A4600955B
:104D30002BF0A2F9C4F8180838B141490122002328
:104D4000486384F80D2884F8143894F81C586DB121
:104D500005B0F0BDD4F818082BF072F9C4F8185853
:104D600084F80D5894F81C58002DF1D1D4F820186F
:104D70000029EDD0032291F90400344E2B46CDE9F1
:104D800001250F7A2A464FF4002106EB8706766C40
:104D900000962BF071F9C4F824080028D8D02849CF
:104DA00042F210730122C4F82C58D1F8941584F8FB
:104DB00030580B4484F81C28C4F8283805B0F0BDDE
:104DC000D4F808082BF03CF9C4F8085884F80358C4
:104DD0008AE7D4F8F0072BF033F9C4F8F05784F8D9
:104DE000EA57FBE694F8F837002B7FF43EAFD4F88F
:104DF000D837002B3FF439AF114A92F87F10C2F830
:104E00005C3101294AD002290CBF0E4B0E4BC4F86D
:104E1000FC37012384F8F83727E794F8E037002BB4
:104E20007FF4B4AED4F8D837002B3FF4AFAE0122F4
:104E3000C4F8E43784F8E027A8E600BF98490024C6
:104E4000A8270024F407002400080024D0720A08D0
:104E500000000024D4F8E4072BF0F2F8C4F8E4577B
:104E600084F8E05792E6134DD5F85C012BF0E8F892
:104E7000C5F85C6184F8F867F7E64FF461420BE728
:104E80004FF49643DDE60C4AC4F8FC27C9E64BB95B
:104E9000094A4FF41663C4F8FC27D2E6064BC4F85F
:104EA000FC37B6E74FF41663CBE6044B03EB820204
:104EB000536CC6E6A8270024E8070024D0720A082D
:104EC00008490023013810F8012F222A04D00133A9
:104ED00001F8012F0F2BF6D1034A0021134483F868
:104EE0008210704729280024A827002410B5022327
:104EF00082B0084C0190C4F834385BF0F3F90246F4
:104F00000199D4F82408D2B202B0BDE8104049F0AB
:104F10006DBB00BF9849002470B5254C064604F1CE
:104F200082005BF0DFF994F882502B2D38D0302DC1
:104F300027D0382D3AD01F49002201E011F8015F37
:104F40000C464DB30132102AF8D1334606F1100554
:104F50001A4613F8011B222926D0AB42F8D10028AB
:104F600020DDC0F10100511C631C024401E09142AC
:104F700018D011F8014D13F8010D8442F7D000202C
:104F800070BD94F883200346A2F13101012901D9B3
:104F9000362A0BD1981ECEE7002AF0D04C1ED4E75B
:104FA0000538C8E7012070BD013AD8E70138C2E7EB
:104FB000A82700242A280024054B93F8AC200AB126
:104FC0000020704702221860012083F8AC2070474F
:104FD000A8270024F0B5224C85B0224D42F6F826D1
:104FE0000027C4F8E45FFDF7EDF812201E491F4AC0
:104FF00004F6B87384F8B80F4020C4F8D81FC4F87A
:10500000DC2FC3E902672BF057FA38B3184B03249F
:105010004FF4E13290F9040013F8956CA5F63805C9
:1050200013F8961C0023022ECDE9002414BF082497
:105030001C46104A994208BF44F0010440210294E2
:105040002BF01AF8C5F85C08014620B10A48FFF7B2
:10505000B3FF85F86008081E18BF012005B0F0BD39
:10506000A8270024D051002455740608D9820608C8
:10507000A0380024C5770608B56A060810B50D4C9F
:1050800094F8AC300BB1002010BD20202BF014FAA6
:10509000C4F8B00058B120212BF004FA0123064ACD
:1050A00084F8AD001846226084F8AC3010BD0120B1
:1050B00010BD00BFA82700244D0604082DE9F04FBD
:1050C0007B4C83B07B4EE56900AFD5E900535B1B99
:1050D000002B40F3AA80002386F87438764D4FF0F9
:1050E000000CA5F1140205F1800305F5C07E2561D1
:1050F0009046C6F86458C6F86858C6F8F839C6F835
:10510000FC39C4F81CE0C4E90532421800F1010A78
:10511000C4E902A203785909012940F08F8003F005
:105120000F0913F0100312D1BCF1000F00F09F80A3
:1051300096F8091A013101F00F01494500F0878006
:1051400018460C3786F87438BD46BDE8F08F821CCF
:10515000C31C25694FF0000CA2604278A3608078E0
:10516000AB18C8F800504240C8F8043086F87418EC
:1051700086F8082AA8F80800A8F80CC0D4E902A20A
:10518000A2EB0A02A3EB050BD5B25FFA8BFBEB1D7A
:10519000AB4503F4FC73ADEB030D6DD25A4651469B
:1051A000684661F0A7FC0AEB0B035A464046694685
:1051B000A36051F0B1F82369D8F8000096F8082AE6
:1051C0008342C8E900300AD00133C8F80030984261
:1051D00013F8011C82EA0102F6D186F8082AA368B6
:1051E0001B78934236D121690023C8F804003A1D88
:1051F000C8F80010E16960690B8148608B81A06983
:1052000086F874387B6035F099F8013048D07B68B7
:105210000BB100209847E369012061690C371A68D7
:10522000C3E90012BD46BDE8F08F96F874C8BCF122
:10523000000F3FF453AFD4F8188066E7002108460A
:10524000FBF748FA01200C37BD46BDE8F08FD8E9DE
:10525000005395E70023B8F90810012086F8743848
:10526000FBF738FA01200C37BD46BDE8F08F6046E9
:105270000C37BD46BDE8F08F2A465146684661F0BE
:1052800039FC0AEB050340462A466946A36051F003
:1052900043F800200C3786F8099ABD46BDE8F08F28
:1052A000E26902211368581C10601970AFE700BF53
:1052B000A827002498490024105200242DE9F04F1B
:1052C0002DED028B87B08846164600AF20B10378DB
:1052D000303B012B40F2B881DFF86893DFEDD28AD2
:1052E0009FEDD28A98F80030002B40D036B1D04BD9
:1052F0003268D3F894359A4240F2F283CD4C94F858
:105300000A5A002D40F0F08294F80D0ACA4B03EBC4
:105310004003B3F8883083BB012384F80D3AD4F8F6
:10532000103A1A0621D5DFF808A3DAF858319B079E
:1053300040F1B183BAF844314FF4F3601021DAF848
:10534000002013FB00F33974302189FB0340DB1785
:1053500079740821C3EB6013002407F11000B974BD
:10536000C7F81330904788F80040002EBAD11C3798
:10537000BD46BDEC028BBDE8F08F0130B3F58A6FFE
:10538000C0B284F80D0A00F0A58128D8B3F5806F6B
:1053900000F053826ED9B3F5866F00F0348251D994
:1053A000B3F5886FE1D1DFF888A29AF87930002B45
:1053B000DBD0A24A10244021DAF80030B2F96801AB
:1053C00004223C740024C7F8130007F1100079741C
:1053D000BA74984788F80040002E83D1C7E7B3F528
:1053E000006F00F0528140F29880B3F5046F00F036
:1053F00033816ED9B3F5116F00F04882B3F5206F99
:10540000B3D18F4BD3F8FC249206AED503F5A0633D
:105410000A2210210024D3ED057ABA74781867EEB9
:10542000A87A834B39741B68FCEEE77A7C7417EE1C
:10543000902AC7F81320984788F80040002E7FF480
:1054400051AF94E7B3F5826F00F00A82B3F5846F31
:105450008BD1D4F8103A1B0687D5DFF8D4A1DAF83F
:1054600058319D0740F1F282D4F8403A10202021B3
:10547000042242E0B3F5007F00F0A08177D9B3F5B4
:10548000047F7FF472AFD4F8103A9D077FF56DAFBB
:10549000DFF89CA19AF87A30002B40F0DD8294F876
:1054A000223A012B0CBFB4F8303AB4F8323A102249
:1054B00002210024C7F81330B818DAF800303A7423
:1054C0007A74B974984788F80040002E7FF40AAFC8
:1054D0004DE7B3F5026F79D1D4F8103A19067FF58C
:1054E00044AFDFF84CA1DAF858319A0740F1C48292
:1054F000DAF834311020202108220024C7F81330B4
:1055000038743818DAF800307974BA74984788F823
:105510000040002E7FF4E6AE29E7B3F5E26F00F01D
:1055200030815BD9B3F5E46F7FF41FAFDFF800A1E2
:105530009AF87930002B7FF418AF404B10250024E7
:1055400093ED2A0A20EE080A5EF044FA2021072291
:10555000C7F81300DAF8003078193D747974BA741A
:10556000984788F80040002E7FF4BCAEFFE6B3F504
:10557000807F00F0DC80B3F5887F7FF4F6AE304B9F
:10558000D3F8FC345D077FF5F0AEDFF8A4A000246B
:105590009AF829160AF604120AF61C13A14208BF4B
:1055A000134693ED050A5EF015FA10230121C7F8A2
:1055B0001300DAF80020F8183B747B74B974904734
:1055C00088F80040002E7FF48DAED0E6B3F5036F6F
:1055D0003FF4A5AE002E7FF485AEC8E6B3F5C06FEC
:1055E00000F08A80B3F5E06F7FF4BFAE104D95F800
:1055F0007940002C7FF4B9AE104B93ED280A20EED1
:10560000080A5EF0E7F9102107222B68C7F813009B
:1056100078187C743974BA74984788F80040002E62
:105620007FF460AEA3E600BFB80C473E0000C8425E
:10563000A827002498490024D0720A0800000020FE
:10564000A03800241F85EB5101300621FFF736FDFD
:10565000A04B83F80A0A3FE69F4B1021402207F136
:105660001000B3F96C313974082103EB83037A74A9
:105670009A4A5B00B9741268C7F81330904788F8EB
:105680000050002E7FF42EAE71E6D4F8103A1C06BE
:105690007FF56BAEDFF844A2DAF85831990740F194
